:020000040800F2
:10000000700800204D020008FD2E0008892B000812
:10001000F92E0008450400086936000800000000B9
:10002000000000000000000000000000052F000894
:100030006104000800000000012F0008092F0008DB
:1000400067020008670200086702000867020008EC
:1000500067020008670200086702000867020008DC
:1000600067020008670200086702000867020008CC
:1000700067020008670200086702000867020008BC
:1000800067020008670200086702000867020008AC
:1000900049040008670200086702000867020008B8
:1000A000D92F0008FD2F0008F12F0008E52F0008C8
:1000B000670200086702000867020008670200087C
:1000C000670200086702000867020008670200086C
:1000D000670200085136000867020008670200083E
:1000E000670200086702000867020008670200084C
:1000F000670200086702000867020008670200083C
:10010000670200086702000867020008670200082B
:10011000670200086702000809300008670200084B
:10012000670200086702000855040008670200081B
:1001300067020008670200086702000867020008FB
:1001400067020008670200086702000867020008EB
:100150006702000867020008670200085D360008B1
:1001600067020008670200086702000867020008CB
:10017000670200086702000867020008000000002C
:1001800067020008670200086702000867020008AB
:10019000670200086702000867020008670200089B
:1001A00000000000000000006702000800F002F8F4
:1001B00000F03CF80AA090E8000C82448344AAF1C5
:1001C0000107DA4501D100F031F8AFF2090EBAE8C3
:1001D0000F0013F0010F18BFFB1A43F0010318477B
:1001E0007435000094350000103A24BF78C878C1F7
:1001F000FAD8520724BF30C830C144BF04680C602D
:10020000704700000023002400250026103A28BF74
:1002100078C1FBD8520728BF30C148BF0B60704778
:100220001FB503F06AFA1FBD10B510BD00F0D0F87D
:100230001146FFF7F5FF03F019FA00F0EEF803B4EA
:10024000FFF7F2FF03BC00F0F5F800000948804713
:1002500009480047FEE7FEE7FEE7FEE7FEE7FEE7A8
:10026000FEE7FEE7FEE7FEE704480549054A064BC0
:1002700070470000C52F0008AD0100087002002083
:1002800070080020700400207004002053EA020C63
:1002900000F069802DE9F04B4FF00006002B1FBFE6
:1002A000B3FA83F503FA05F424FA05F65E4012BFAB
:1002B0001643B2FA82F502FA05F4C5F120051EBF15
:1002C00022FA05FC44EA0C04203556EA044C4FEAB5
:1002D000144418BF641C4FF000084FF0000990420E
:1002E00071EB030C39D3002919BFB1FA81F701FA78
:1002F00007F6B0FA80F700FA07F6C7F120071EBF2D
:1003000020FA07FC46EA0C062037B6FBF4FCA7EB04
:100310000507103F07F01F0BCBF120062CFA06F65D
:100320000CFA0BFB44BFB3460026202FA4BF5E4649
:100330004FF0000B5BEA060C08BF4FF0010B19EB06
:100340000B0948EB0608ABFB027C06FB02CC0BFB5F
:1003500003CCC01B71EB0C01C1E70B4602464146C2
:100360004846BDE8F08B13B5084318BF4FF0FF3087
:100370000146AFF30080BDE81C4070474FF000021B
:1003800000B5134694469646203922BFA0E80C508B
:10039000A0E80C50B1F12001BFF4F7AF090728BF66
:1003A000A0E80C5048BF0CC05DF804EB890028BFE2
:1003B00040F8042B08BF704748BF20F8022B11F00B
:1003C000804F18BF00F8012B704770477047704787
:1003D000754600F02BF8AE4605006946534620F0FE
:1003E0000700854618B020B5FFF73EFFBDE8204066
:1003F0004FF000064FF000074FF000084FF0000BE1
:10040000AC46ACE8C009ACE8C009ACE8C009ACE84F
:10041000C00921F007018D46704710B50446AFF3BF
:1004200000802046BDE81040FFF709BF0048704734
:100430001000002001491820ABBEFEE72600020094
:1004400070470000FEE7000040F2C400C2F2000066
:1004500000F096B840F2EC00C2F2000000F016BBCB
:100460007047000072B600BFFEE7000090F8202041
:10047000013A012A08D8006800F11402002013682C
:1004800019431160704700BF00F1240201204FF4AE
:10049000802113681943116070470000B0B590F8CF
:1004A0002020013A012A2FD846F20060C4F2000051
:1004B000026842F001020260026822F47C5202608B
:1004C000D1F814E0CC694A6A0368012C43EA02229D
:1004D00002600EF01F024FF0010303FA02F2C3693B
:1004E0006FEA020C23EA0203C36113D02CBBC3687A
:1004F00003EA0C03C360CB688C8844EA034300EB37
:10050000CE0423640B4611E0416A41F4802141622C
:100510000120B0BDC3681343C3600B688C8844EAF4
:10052000034300EBCE04236401F10C038C681B88A9
:1005300043EA044300EBCE04636443688D6943EAF5
:100540000204D1F810E0096A002D08BF03EA0C0488
:1005500044604369BEF1000F43EA020408BF03EAA6
:100560000C040129446102D1C1691143C1610168D0
:1005700021F0010101600020B0BD000070470000C3
:100580002DE9F04F81B0044600684669D0F8049028
:100590008768D0F80CB0D0F810A0D0F81880F10718
:1005A00004D1002530071DD424E000BFF90710D086
:1005B0000121BA07816009D4780700F1AF803807BC
:1005C00000F1B680204600F0F9F902E0204600F084
:1005D000F7F90025F80500F18780F80300F1B180F4
:1005E000300707D51BF0100004D0206845F40075D3
:1005F0001021C160700708D51BF0080005D02068E5
:100600000821C160204600F0A1F9B00706D5206896
:10061000C068800702D0204600F09AF9700607D51E
:100620001AF0100004D0206845F4806510210161A3
:10063000B00608D51AF0080005D02068082101612D
:10064000204600F087F9F00606D52068006980078B
:1006500002D0204600F080F9B00308D519F0100050
:1006600005D0206810214160204600F077F9F003A2
:1006700008D519F0080005D02068082141602046FF
:1006800000F0A8F9300440F19B805FEA497040F126
:10069000948006F4807008EA102028435FEA88718D
:1006A000014648BF41F00201B20558BF01465FEA6A
:1006B00048700D4648BF45F00405700558BF0D460B
:1006C000300540F17A8018F0700000F07680103824
:1006D000000905286CD8DFE800F003595D61656901
:1006E00045F0080564E000BF20684FF48071BA054A
:1006F00081600BD4780515D438051DD4204600F050
:1007000061F9F8037FF56CAF1BE000BF204600F0F5
:100710005BF9F8037FF564AF13E000BF4FF40065A9
:1007200058E700BF05F50055F8037FF559AF08E01D
:100730004FF480554EE700BF05F58045F8037FF57F
:100740004FAF20684FF48031BA0381600AD4780338
:1007500010D4380314D4204600F038F930073FF5A0
:1007600041AF47E7204600F033F930073FF53AAF95
:1007700040E700BF05F5004530073FF533AF39E7E7
:1007800005F5803530073FF52DAF33E745F010050F
:100790000EE000BF45F020050AE000BF45F040052F
:1007A00006E000BF45F0800502E000BF45F480751B
:1007B0002068816921F07001816120680421416015
:1007C00055B1606A40EA05012046616201B0BDE8AA
:1007D000F04FFFF7D3BE00BF01B0BDE8F08F0000BF
:1007E000B0B5C8B1044690F8200010B9204600F01A
:1007F00071F82068016841F00101016000F002FC1D
:10080000054600BF20684168C90707D100F0FAFB20
:10081000401B0B28F6D312E00120B0BD016821F087
:100820000201016000F0EEFB054600BF2068416850
:1008300089070DD500F0E6FB401B0B28F6D3606A54
:10084000052140F400306062012084F82010B0BD22
:10085000217E0268012922F0800208BF80320260F6
:10086000617E0268012922F0400208BF4032026026
:10087000A17E0268012922F0200208BF2032026016
:10088000E17E0268012922F0100218BF10320260D6
:10089000217F0268012922F0080208BF08320260A5
:1008A000617F0268012922F0040208BF043202605D
:1008B000D4E901C2D4E9033561691A432A431143DB
:1008C000ACF101021143C16100200121606284F892
:1008D0002010B0BD80B586B0016846F20040C4F279
:1008E0000000814202D006B080BD00BF002143F667
:1008F00030020191C4F20202136900F5D43043F0D2
:1009000000731361136903F000730193019B01915C
:10091000136843F0080313601268022302F0080210
:100920000192019ACDE9023109210322059101A921
:100930000192049200F08CFA14200021002200F0B1
:10094000E5FB142000F0CEFB06B080BD7047000030
:1009500070470000704700007047000070470000BB
:10096000B0B5044690F8200001281DD1022084F87B
:1009700020002068016821F00101016000F042FBC5
:10098000054600BF20684068C00713D000F03AFB5E
:10099000401B0B28F6D3606A40F4003060620520EB
:1009A00084F820000120B0BD606A40F4002060623D
:1009B0000120B0BD00206062B0BD000070470000A3
:1009C000704700007047000070470000704700004B
:1009D000704700007047000070B5866D044600F057
:1009E00011FB94F83510022928D105462068216CA6
:1009F000026822F016020260426922F0800242611F
:100A000009B9A16C19B1016821F008010160016800
:100A100021F00101016000BF20680068C00715D007
:100A200000F0F0FA401B0628F6D320206065032072
:100A300084F83500002184F8341070BD8020606592
:100A40000120002184F8341070BD00BFE06D3F210B
:100A500001FA00F0B060012084F835000020002188
:100A600084F8341070BD000090F83510022909D1C7
:100A7000052180F835100068016821F0010101604E
:100A8000002070478021416501207047F0B581B09A
:100A900004460020009040F20800C2F20000026804
:100AA000D4E9166048F2B51337680821C1F64E3311
:100AB00081403942A2FB03250CD0226813685B07F2
:100AC00008D5136823F004031360B160616D41F031
:100AD0000101616501218140394208D022685269D3
:100AE000120604D5B160616D41F002016165042117
:100AF0008140394208D022681268920704D5B1605B
:100B0000616D41F00401616510218140394217D0C7
:100B100020680268120713D5B160026801685203A9
:100B200008D4C90508D4016821F008010160216CCE
:100B300021B905E008033FD4216C09B1204688475C
:100B4000E16D202000FA01F23A4241D020680368AA
:100B5000DB063DD5B26094F835300268052B1BD119
:100B600022F016020260426922F080024261226C89
:100B70000AB9A26C1AB1026822F0080202603F2092
:100B80008840B060012084F83500216D00200029E4
:100B900084F8340052D157E00168520310D4C905DB
:100BA00012D4016821F010010160012084F83500A1
:100BB000002084F8340007E0A16C0029BED1BFE713
:100BC000080301D4616C00E0E16B09B1204688475D
:100BD000606DC8B3606DC0072ED0052084F8350065
:100BE0002068A90A026822F001020260009A01321C
:100BF0008A4200921AD80268D20717D0009A0132AE
:100C00008A42009212D80268D2070FD0009A0132AD
:100C10008A4200920AD80268D20707D0009A0132AD
:100C20008A42009202D80268D207DFD1012084F8FC
:100C30003500002084F83400E16C29B1204601B071
:100C4000BDE8F040084700BF01B0F0BD2DE9F0411C
:100C5000044600F0D7F9ECB10546022084F83500CF
:100C60000020216884F83400086820F00100086042
:100C700021680868C00711D000F0C4F9401B05289E
:100C8000F6D9032520230320636584F83550BDE899
:100C9000F08100BF0120BDE8F08100BF086848F284
:100CA0003F02CFF21002D4E9013500EA020C04F150
:100CB0000C0898E8C10143EA0C032B431843D4E91C
:100CC000072E304338431043626A40EA0E00042A7C
:100CD00040EA08031CD1206BD4E90A2E40EA0E003A
:100CE000184308604869BEF1000F20F0030040EA95
:100CF000020040F0040C11D0B8F5005F36D0B8F116
:100D0000000F45D1022A46D0012A3BD032B942E039
:100D10000B60486920F0070040EA020C01F0F8007F
:100D20004AF6AB221038CAF6AA22A0FB02231A09FF
:100D300043F24C73C0F600039A5C40F2FF335F2825
:100D40004FF03F00C1F814C021EA030100FA02F09D
:100D500088BF0431C4E916128860002301250020F1
:100D6000636584F83550BDE8F08100BF032AD5D80B
:100D7000012540230120DFE802F0030E030500BF38
:100D800082E700BFAEF1C070B0FA80F0400904E025
:100D9000032A04D3C2D1CEF300600028BED00125BF
:100DA00040230120636584F83550BDE8F0810000E0
:100DB00070B590F834C0BCF1010F46D04FF0010C73
:100DC00080F834C0D0F858E090F835C0BCF1010F7D
:100DD00038D14FF0020C80F835C04FF0000CC0F84D
:100DE00054C0D0F800C08468056CC06DDCF80060A9
:100DF000402C26F48026CCF80060CCF804300B465A
:100E000004BF13460A463F2101FA00F0CCF808302F
:100E1000CCF80C20CEF80800DCF8000040F01600FA
:100E2000CCF800002DB1DCF8000040F00800CCF850
:100E30000000DCF8000040F00100CCF800000020C9
:100E400070BD00BF002180F83410022070BD00008A
:100E50002DE9F04F82B000F13E4242F2004502F12E
:100E6000FF77C4F202050A2243F6004E4FEAB72686
:100E7000A84208BF0922C4F2010E092E38BF4FEA6A
:100E8000B7220125002600274FF00008009208E055
:100E900008F101080437B8F1100F06F1020600F05E
:100EA000A7800C6805FA08F914EA090FF0D0D1F808
:100EB00004B003220BF0030CACF10104B240012C8E
:100EC0006FEA020A10D88268CC6802EA0A02B440CB
:100ED000224382604268CBF3001422EA090204FA3A
:100EE00008F42243426005E0BCF1030F02D14FF049
:100EF000030C20E0C2688C6802EA0A02B440224374
:100F0000BCF1020FC26016D16FF0030202EA580270
:100F10000244D2F820C007F01C050F230C69AB4037
:100F20002CEA030304FA05F52B431362D1F804B04D
:100F300001250BF0030C02680CFA06F302EA0A0220
:100F40001A431BF4403F0260A2D0002243F6440340
:100F50000192C4F202031A684FF6084C42F4804230
:100F60001A601A68CFF6FF7C02F480420192019A5F
:100F700028F00302724452F80C3007F00C050F24DD
:100F8000AC40A343009C04FA05F52B4342F80C3017
:100F9000DEF808204B6842EA090543F60C4CDC02F7
:100FA00058BF22EA0905CEF80850C4F2010CDCF85B
:100FB00000209C0242EA090558BF22EA0905CCF844
:100FC0000050DEF804209C0342EA090558BF22EADB
:100FD0000905CEF80450DEF80020DB0342EA0905DB
:100FE00058BF22EA0905CEF80050012550E700BF9E
:100FF00002B0BDE8F08F0000002A08BF090481613B
:101000007047000040F26C20C2F200000068704798
:1010100040F2000040F26C21C2F20000C2F2000176
:1010200000780A68104408607047000080B543F6F5
:101030000040C4F20200016841F4007101600168DF
:1010400041F480610160016841F480710160032016
:1010500000F088F80F2000F005F800F027F80020D5
:1010600080BD000070B540F20006C2F2000640F2FA
:1010700008013278C2F200014FF47A730968B3FBB9
:10108000F2F20446B1FBF2F1084600F081FB0F2CAE
:101090004FF0010508D838B94FF0FF302146002243
:1010A000002500F033F87460284670BD82B000203F
:1010B00043F640010190C4F202014A6842F48042C2
:1010C0004A604A6802F480420192019A00900868DE
:1010D00040F080500860086800F080500090009850
:1010E00002B07047002848BF7047C1B200F01F002F
:1010F000012202FA00F04EF20012CEF2000242EAA1
:10110000D10121F0030108607047000010B54EF6D0
:101110000C5CCEF2000CDCF80030C3F3022E8EF033
:101120000704042C28BF0424BEF103034FF0FF3E44
:101130000EFA04F438BF0023A14399400EFA03F3DA
:101140009A43114300F00F0200F160430901043A91
:1011500003F564436244002848BF02F10C03197090
:1011600010BD00004EF60C51CEF200010A684FF699
:10117000FF031A4060F30A2242F0806040F0FD70E5
:101180000860704770B582B00020019043F64000BF
:10119000C4F202000168402641F0805101600068FD
:1011A000C4F20E2600F080500190019847F2040529
:1011B0000120C4F200053060FFF724FF044600BFA1
:1011C0002868C00306D4FFF71DFF001BB0F57A7F27
:1011D000F6D90EE001207060FFF714FF044600BF4F
:1011E0002868800308D4FFF70DFF001BB0F57A7F55
:1011F000F6D9032002B070BD002002B070BD00001F
:101200002DE9F041002800F08B8043F60808C4F275
:1012100002080446D8F8F8030D4600F00F00884293
:1012200007D288F8F853D8F8F80300F00F00A84266
:1012300076D12068810717D5410705D5D8F8001069
:1012400041F4E051C8F80010010705D5D8F80010A6
:1012500041F46041C8F80010D8F80010A26821F0ED
:10126000F0011143C8F80010C0073FD1D8F8F803C7
:1012700000F00F00A84207D988F8F853D8F8F8030F
:1012800000F00F00A8424BD12068410707D5D8F8DD
:101290000010E26821F4E0511143C8F80010000783
:1012A00008D5D8F80000216920F4604040EAC10068
:1012B000C8F8000000F07CF8D8F8001043F214726F
:1012C000C1F30311C0F60002515C40F2080220FA9B
:1012D00001F140F20400C2F200000068C2F2000214
:1012E0001160FFF7BFFE0020BDE8F0816068811E3D
:1012F000022907D258F8081C89015CBF0120BDE80B
:10130000F08111E0012807D158F8081C89035CBF5F
:101310000120BDE8F08107E058F8081C890703D4D4
:101320000120BDE8F08100BFD8F8001021F00301D2
:101330000843C8F80000FFF765FE064641F288370B
:10134000D8F80000616800F00C00B0EB810F8DD080
:10135000FFF758FE801BB842F2D90320BDE8F081A8
:1013600040F2080043F60801C2F20000C4F2020194
:101370000068096843F22472C1F38221C0F60002BA
:10138000515CC8407047000040F2080043F6080175
:10139000C2F20000C4F202010068096843F224723C
:1013A000C1F34231C0F60002515CC84070470000F2
:1013B00010B543F60404C4F20204606800F00C00A7
:1013C00008280BD0042819BF42F20040C0F2F400F4
:1013D00041F60030C0F2B70010BD00BF20682168A0
:1013E0002368490241F60031C0F2B70100F03F0224
:1013F000C3F388105CBF42F20041C0F2F401A1FBCC
:1014000000010023FEF742FF21680222C1F30141DF
:1014100002EB4101B0FBF1F010BD00002DE9F041FD
:1014200082B0002868D00446007843F60006C00762
:10143000C4F202060BD0B06800F00C00042840F0A3
:101440009F803068800302D56068002854D02078DF
:1014500080071AD5B06810F00C0F09D0B06800F002
:101460000C00082840F0A6807068400200F1A280BD
:101470003068800702D5E06801283DD130682169D5
:1014800020F0F80040EAC10030602078000737D42F
:10149000207840074CD4A56955B3B06800F00C0023
:1014A000082840F0BB80012D26D07068E16900F467
:1014B00080028A4220D1216A00F03F028A421BD179
:1014C00047F6C071626A0140B1EB821F14D1A16A74
:1014D0004FF6FF73C903994300F44032A1F5803100
:1014E0008A4209D1E16A00F07060B0EB016F03D16C
:1014F000002002B0BDE8F081012002B0BDE8F0811B
:101500006069002840F20000C4F2472076D0012133
:10151000C0F8801EFFF776FD054600BF706F80079C
:10152000B6D4FFF76FFD401B0228F7D9DDE000BFFE
:10153000306C10F080580AD100200190306C40F0DF
:1015400080503064306C00F080500190019847F278
:101550000007C4F200073868C00541D4386840F479
:1015600080703860FFF74EFD054600BF3868C00543
:1015700036D4FFF747FD401B0228F7D9B5E000BF7E
:10158000B06800F00C00082803D1706840023FF5F5
:1015900058AF6068B0F5803F07D0B0F5A02F40F09D
:1015A0008D80306840F480203060306840F48030B6
:1015B00030608DE0E068002852D00020C4F247205F
:1015C00001210160FFF71EFD054600BF306880075E
:1015D0003FF554AFFFF716FD401B0228F6D984E013
:1015E000A068012805D005284ED1306F40F00400D6
:1015F0003067306F40F0010030674FE00021C0F8E5
:10160000801EFFF7FFFC0546706F80077FF540AF37
:10161000FFF7F8FC401B0228F6D966E00027C4F269
:10162000472700203866FFF7EDFC022D05460BD159
:10163000306880015ED5FFF7E5FC401B02284FF0C3
:101640000300F5D955E700BF306880017FF550AF42
:10165000FFF7D8FC401B02284FF00300F4D948E7FD
:101660000020C4F2472000210160FFF7CBFC0546B3
:10167000306880077FF509AFFFF7C4FC401B0228E4
:101680004FF00300F4D934E7316F002821F0010155
:101690003167316F21F0040131674DD0FFF7B2FCA3
:1016A000054641F2883700BF306F800756D4FFF7F8
:1016B000A9FC401BB842F7D917E000BF31680028E9
:1016C00021F480313160316821F4802131604FD0C4
:1016D000FFF798FC054600BF306880033FF5B7AEC2
:1016E000FFF790FC401B6428F6D9032002B0BDE848
:1016F000F08100BF04F11C052FCD084340EA8210A1
:10170000D9034FF6FF729143A1F5803140EA05609D
:101710000843706001203866FFF774FC044600BF80
:10172000306880013FF5E4AEFFF76CFC001B022837
:101730004FF00300F4D9DCE6FFF764FC054641F204
:10174000883700BF306F800708D5FFF75BFC401B70
:10175000B8424FF00300F5D9CBE600BFB8F1000F57
:101760007FF499AE306C20F08050306493E600BF77
:10177000FFF748FC054600BF306880037FF567AE81
:10178000FFF740FC401B64284FF00300F4D9B0E69B
:10179000411E0020B0EB116F1CBF012070474EF2BC
:1017A0001002CEF2000251604EF62351CEF200013B
:1017B000F0230B70072190601160704770470000A4
:1017C00070470000B0B590F83C20012A04BF022009
:1017D000B0BD01F108053CCDD1E900CE23F47C5326
:1017E00022F470521A432EF4F0431A432CF4E043CF
:1017F0001A4324F4C0431A432A43C96922F480429D
:10180000036811435964002180F83C100846B0BDBC
:1018100010B590F83C20012A4FF0020251D080F818
:101820003D200268D2F804E0D2F808C00C682EF01F
:101830007003234341F2FF74C4F20004A2425360D8
:101840000EDC40F2FF73C4F200039A4216DCB2F1E0
:10185000804F2BD040F20043C4F2000324E000BFCD
:1018600040F2FF33C4F201039A4213DC41F6000355
:10187000C4F200039A4219D0002313E040F600039B
:10188000C4F200039A4211D040F60043C4F20003B0
:101890000AE000BF44F20003C4F201039A4205D0FB
:1018A00040F20043C4F201039A4204D149682CF08B
:1018B0008003194391600121002280F83D1080F8D7
:1018C0003C20104610BD0000002804BF01207047D6
:1018D00010B5044690F83D0028B9002084F83C007B
:1018E000204600F01FF8022084F83D002068211DEA
:1018F00001F090FB012084F8460084F83E0084F853
:101900003F0084F8400084F8410084F8420084F8E5
:10191000430084F8440084F8450084F83D0000202A
:1019200010BD000010B582B0006841F20001C4F2A1
:10193000000188422ED00021C4F20101884245D125
:101940000020019043F64000C4F2020041680022EA
:1019500041F0010141604068002100F00100019068
:1019600001981820FFF7D2FB1820FFF7BBFB1920C6
:1019700000210022FFF7CAFB1920FFF7B3FB1A2052
:1019800000210022FFF7C2FB1A20FFF7ABFB1B244C
:1019900010E000BF0020009043F64000C4F20200B7
:1019A0000168362441F010010160006800F0100069
:1019B00000900098204600210022FFF7A7FB204658
:1019C00002B0BDE81040FFF78DBB00BF02B010BDF4
:1019D00090F83D1001291CBF01207047022180F8BA
:1019E0003D10006841F2FF72C168C4F200029042EB
:1019F00041F00101C1600DDC40F2FF71C4F2000151
:101A0000884215DCB0F1804F2AD040F20041C4F288
:101A1000000123E040F2FF31C4F20101884213DCEF
:101A200041F60001C4F20001884219D0002113E000
:101A300040F60001C4F20001884211D040F6004196
:101A4000C4F200010AE000BF44F20001C4F2010147
:101A5000884205D040F20041C4F20101884206D11B
:101A6000816801F00701062904BF00207047016862
:101A700041F00101016000207047000080B590F83E
:101A80003C20012A4FF0020200F0C28080F83D2085
:101A9000D0F800C04FF67772DCF8083023EA020273
:101AA000CCF808200B684F2B28DC1F2B44DD202BA3
:101AB00045D0302B43D0402B40F0AC80D1F804E02F
:101AC000C968DCF82030DCF8202022F00102CCF8D4
:101AD0002020DCF8182022F0F00242EA011123F065
:101AE0000A0242EA0E02CCF81810CCF82020DCF8EA
:101AF000081041F0470121F0300180E06F2B27DD15
:101B0000B3F5005F48D0B3F5805F7AD0702B40F01A
:101B10008180D1E901E3C968DCF8082043EA0E03BB
:101B200022F47F4243EA01211143CCF80810DCF88B
:101B3000081041F0770162E00BB1102B6AD1DCF89C
:101B4000081021F07001194341F0070157E000BF70
:101B5000502B35D0602B5DD1D1F804E0C968DCF89A
:101B60002030DCF8202022F01002CCF82020DCF815
:101B7000182022F4704242EA013123F0A00242EA26
:101B80000E12CCF81810CCF82020DCF8081041F028
:101B9000670121F0100132E0D1E901E3C968DCF806
:101BA000082043EA0E0322F47F4243EA0121114355
:101BB000CCF80810DCF8081041F480411FE000BFA9
:101BC000D1F804E0C968DCF82030DCF8202022F0ED
:101BD0000102CCF82020DCF8182022F0F00242EAC2
:101BE000011123F00A0242EA0E02CCF81810CCF8D8
:101BF0002020DCF8081041F0570121F02001CCF83A
:101C000008100022012180F83D10002180F83C10CE
:101C1000104680BD0122F5E77047000070B504460C
:101C20000068C5680669B10716D515F0020113D022
:101C30006FF002010161012121778069800703D0E3
:101C40002046FFF7E9FF05E0204600F08FF8204628
:101C500000F0D0F900202077700719D515F00400A6
:101C600016D020686FF0040101610221217780699C
:101C700010F4407F04D02046FFF7CEFF06E000BFFF
:101C8000204600F073F8204600F0B4F900202077D9
:101C9000300717D515F0080014D020686FF0080140
:101CA000016104212177C069800703D02046FFF736
:101CB000B3FF05E0204600F059F8204600F09AF9FD
:101CC00000202077F00619D515F0100016D02068F6
:101CD0006FF01001016108212177C06910F4407F85
:101CE00004D02046FFF798FF06E000BF204600F032
:101CF0003DF8204600F07EF900202077F00718BF5D
:101D000015F0010002D1300609D412E020686FF00E
:101D100001010161204600F01BFA300609D515F0DB
:101D2000800006D020686FF0800101612046FFF737
:101D300045FD700609D515F0400006D020686FF00B
:101D400040010161204600F005FAB00658BF70BDA1
:101D500015F0200008D021686FF0200220460A61AB
:101D6000BDE87040FFF72CBD70BD0000704700005B
:101D70002DE9F04390F83C30012B04BF0220BDE870
:101D8000F0834FEAB202032A00F2FC80DFE802F09F
:101D9000023E7EBE036840F200471C6A1A6A24F0C5
:101DA000020422F001021A621A46D3F804E052F843
:101DB00018CF8E6843F48065C4F20107BD4244EA3F
:101DC000060405D1CE6824F00C0426F00406344342
:101DD0000E68BD4207D1D1E905572EF4407E45EA91
:101DE0000E0545EA070E2CF073073743C3F804E0ED
:101DF0009F614F6809695F631C629F6947F008072C
:101E00009F619F6927F004079F61B1E0036840F27A
:101E100000481C6A1A6A24F0200422F010021A6298
:101E20001A46D3F804C052F818EF8F6843F480655F
:101E3000C4F20108454544EA071407D1CF686FF0A2
:101E4000400624F0C00406EA07163443D1F8009097
:101E5000454506D1D1E905562CF440672E4347EAA3
:101E6000860C2EF4E64747EA0927C3F804C09F61B1
:101E70004F6809699F631C629F6947F400679F610F
:101E80009F6927F480679F6171E000BF036840F29B
:101E900000481C6A1A6A24F4007422F480721A62E0
:101EA0001A46D3F804C052F81CEF8F6843F48065DB
:101EB000C4F20108454544EA072408D1CF6840F23E
:101EC000FF463F0224F4406427EA06063443D1F873
:101ED0000090454506D1D1E905562CF440572E43D4
:101EE00047EA061C2EF0730747EA0907C3F804C047
:101EF000DF614F680969DF631C62DF6947F008072B
:101F0000DF61DF6927F00407DF6131E0036840F239
:101F10000045D3F820C01A6A43F4806722F4805247
:101F20001A621A465C6852F81CEFD1F800808E687D
:101F3000C4F20105AF4204D14D6924F4804444EA5F
:101F400085142CF4005747EA06372EF4E64646EA95
:101F500008265C60DE614E6809691E641F62DF69E5
:101F600047F40067DF61DF6927F48067DF610902FA
:101F70001368194311600021002280F83C200846B4
:101F8000BDE8F0830121002280F83C200846BDE82E
:101F9000F0830000002804BF0120704710B50446FC
:101FA00090F83D0028B9002084F83C00204600F05D
:101FB0001FF8022084F83D002068211D01F02AF856
:101FC000012084F8460084F83E0084F83F0084F83D
:101FD000400084F8410084F8420084F8430084F80B
:101FE000440084F8450084F83D00002010BD000046
:101FF000704700007047000041B1082916D004293D
:1020000014BF00F1410200F13F0211E090F83E20C0
:10201000012A1CBF01207047022280F83E204FEAAF
:10202000B103032B4FF0010216D81FE000F140026C
:102030001278012A1CBF01207047022208290DD006
:10204000042914BF80F8412080F83F204FEAB103F3
:10205000032B4FF0010209D91046704780F8402049
:102060004FEAB103032B4FF00102F5D843F22C7C69
:102070000068C0F6000C5CF823C0C36801F01F01C3
:1020800043EA0C03C360036A02FA01F123EA010286
:102090000262026A114341F2FF72C4F200029042EE
:1020A00001620FDC40F2FF71C4F2000188421BDCC8
:1020B000B0F1804F3ED040F20041C4F200018842AE
:1020C00038D03FE040F2FF31C4F20101884219DC10
:1020D00041F60001C4F2000188422BD00021C4F275
:1020E000010188421AD02DE040F60001C4F200013F
:1020F00088421FD040F60041C4F20001884219D046
:1021000020E000BF44F20001C4F20101884211D076
:1021100040F20041C4F20101884213D1416C40F207
:10212000004340F48062C4F2010341F400419A424A
:10213000416407D1816801F00701062902D100221C
:1021400010467047016841F00101016000207047AE
:1021500070470000704700007047000070470000A3
:10216000B0B582B0044600680168C368426901F0F6
:102170002F05202D03F0200506D12DB1204602B0F9
:10218000BDE8B04001F06CB95FEA017C1EBF02F00F
:10219000010E03F4907212EB0E0253D1226B012A4E
:1021A00005D111F0100218BF13F0100236D10A0643
:1021B00022D513F080021FD094F8411021293FD17D
:1021C000A168B1F5805F03D12169002900F0728216
:1021D000216A4A1C226209784160E18C01390A04B3
:1021E000E1842DD1C16821F08001C160C16841F056
:1021F0004001C16002B0B0BD490621D513F04001D5
:102200001ED0C16821F04001C1602021204684F821
:10221000411002B0BDE8B04000F0B4BC0021019113
:10222000016801914168019101994069400613D408
:10223000A08DE18DE28D002A18BF884240F0BC815C
:1022400002B0B0BDCA0718BF13F4807240F0B88066
:102250004A0700F1BB80C0E0E06B016849688AB2C0
:10226000002AEDD0A38D9A42EAD2E185C069B0F58B
:10227000807F00F09C80206850E8030F216820F4E4
:10228000807041E80302DAB1206850E8030F21684A
:1022900020F4807041E8030292B1206850E8030FF7
:1022A000216820F4807041E803024AB1206850E8B8
:1022B000030F216820F4807041E80302002ADAD17C
:1022C000206850E8050F216820F0010041E8050270
:1022D000DAB1206850E8050F216820F0010041E8DC
:1022E000050292B1206850E8050F216820F0010036
:1022F00041E805024AB1206850E8050F216820F046
:10230000010041E80502002ADAD1206850E8050FF3
:10231000216820F0400041E80502DAB1206850E869
:10232000050F216820F0400041E8050292B12068C5
:1023300050E8050F216820F0400041E805024AB14D
:10234000206850E8050F216820F0400041E80502B0
:10235000002ADAD1202084F842000020206320687F
:1023600050E8030F216820F0100041E80302DAB1C1
:10237000206850E8030F216820F0100041E80302B4
:1023800092B1206850E8030F216820F0100041E866
:1023900003024AB1206850E8030F216820F01000C2
:1023A00041E80302002ADAD1E06BFEF715FB0220B8
:1023B0006063A08DE18D401A81B2204675E100BFB7
:1023C000626C42F0010262644A0706D5BEF1000F5A
:1023D00003D0626C42F0020262648A0706D5BEF145
:1023E000000F03D0626C42F004026264BCF1000F83
:1023F00009D545EA0E02B2FA82F2520903D1626CA3
:1024000042F008026264626C002A3FF419AF11F0D6
:10241000200118BF002D03D0204601F021F82068CC
:102420004069616C00F0400001F00801401800F0C4
:10243000B58000BF206850E8030F216820F4907039
:1024400041E80302BAB3206850E8030F216820F482
:10245000907041E8030272B3206850E8030F2168CE
:1024600020F4907041E803022AB3206850E8030F7B
:10247000216820F4907041E80302002ADAD11AE0C2
:10248000206850E8050F216820F0010041E80502AE
:10249000DAB1206850E8050F216820F0010041E81A
:1024A000050292B1206850E8050F216820F0010074
:1024B00041E805024AB1206850E8050F216820F084
:1024C000010041E80502002ADAD1206B012824D15D
:1024D000206850E8030F216820F0100041E8030253
:1024E000DAB1206850E8030F216820F0100041E8BD
:1024F000030292B1206850E8030F216820F0100019
:1025000041E803024AB1206850E8030F216820F037
:10251000100041E80302002ADAD1202084F84200AA
:10252000002020632068406940063FD5206850E8BD
:10253000050F216820F0400041E80502DAB120686B
:1025400050E8050F216820F0400041E8050292B1F3
:10255000206850E8050F216820F0400041E805029E
:102560004AB1206850E8050F216820F0400041E89A
:102570000502002ADAD1E06BC0B143F26111C0F666
:1025800000010165FEF770FA00283FF459AEE06BD8
:10259000016D02B0BDE8B040084700BF2046FFF71C
:1025A000DDFD0020606402B0B0BD00BF204602B077
:1025B000BDE8B040FFF7D2BD401A216851E8031FC3
:1025C000226821F4907142E80313DBB1216851E8DD
:1025D000031F226821F4907142E8031393B121682C
:1025E00051E8031F226821F4907142E803134BB1B4
:1025F000216851E8031F226821F4907142E8031317
:10260000002BDAD1216851E8051F226821F0010171
:1026100042E80513DBB1216851E8051F226821F06B
:10262000010142E8051393B1216851E8051F2268B2
:1026300021F0010142E805134BB1216851E8051F63
:10264000226821F0010142E80513002BDAD1202194
:1026500084F8421000212163216851E8031F226899
:1026600021F0100142E80313DBB1216851E8031F98
:10267000226821F0100142E8031393B1216851E868
:10268000031F226821F0100142E803134BB12168B7
:1026900051E8031F226821F0100142E80313002BC8
:1026A000DAD1022281B22046626302B0BDE8B040B6
:1026B000FFF752BD216A31F8022B6FF35F224260AF
:1026C00021628AE5002804BF0120704710B5044646
:1026D00090F8410028B9002084F84000204600F01E
:1026E00021F8242084F841002068C16821F40051B9
:1026F000C160204600F034FF2068016921F4904158
:102700000161416921F02A014161C16841F4005130
:10271000C16000202021606484F8411084F84210D8
:10272000606310BD70B586B00446216841F2004276
:10273000C4F2010200209142CDE90400CDE902007B
:10274000019051D041F20000C4F20100814240F0FA
:102750007F80002643F630000096C4F202004169F3
:1027600041F010014161416901F0100100910099AF
:102770000096016841F002010160006801A900F0C3
:10278000020000900098C02001900220CDE90206CE
:10279000032004900720059040F20040C4F202009C
:1027A000FEF756FB40F2EC0546F24040C2F200054F
:1027B000C4F202004FF0006185E843004FF440305E
:1027C0004FF48062C5E908062846C5E90362C5E9F9
:1027D0000566EE61FEF73AFA002818BFFDF742FEE3
:1027E000E563AC6325242BE043F630010090C4F28E
:1027F00002014A6942F020024A614A6902F020025D
:102800000092009A00900A6842F040020A6009684B
:1028100001F04001009100994FF48441019102219F
:10282000CDE90210032004900820059040F20040FA
:10283000C4F2020000F5A05001A9FEF709FB4724ED
:10284000204600210022FEF761FC2046FEF74AFCEC
:1028500006B070BD70B582B0044690F842002028E2
:102860000AD113460A4600294FF0010018BF002B79
:1028700006D102B070BD00BF022002B070BD00BF23
:10288000002622202663A262A385666484F84200A3
:102890002168E06B43F2E92C43F2494E43F26D1597
:1028A000C0F6000CC0F6000EC0F600050431C0E909
:1028B0000FCEC0E91356FEF77BFA01962068016837
:1028C0000191406801900198206928B3206850E880
:1028D000030F216840F4807041E80302E2B12068F0
:1028E00050E8030F216840F4807041E803029AB178
:1028F000206850E8030F216840F4807041E803022B
:1029000052B1206850E8030F216840F4807041E81C
:102910000302002ADAD100BF206850E8050F2168C1
:1029200040F0010041E80502E2B1206850E8050FDF
:10293000216840F0010041E805029AB1206850E8A2
:10294000050F216840F0010041E8050252B12068FE
:1029500050E8050F216840F0010041E80502002A17
:10296000DAD100BF206850E8050F216840F0400030
:1029700041E80502DAB1206850E8050F216840F00F
:10298000400041E8050292B1206850E8050F216837
:1029900040F0400041E805024AB1206850E8050FC8
:1029A000216840F0400041E80502002ADAD1002009
:1029B00002B070BD90F84230202B1CBF022070473F
:1029C00000294FF0010318BF002A01D118467047B3
:1029D00000230363816222218285C285436480F8DB
:1029E00042100169006819B1C16841F48071C16089
:1029F0004169002341F001014161C16841F02001BA
:102A0000C16018467047000070B582B041F2000600
:102A10000446C4F20106006806F58061884203D0CE
:102A2000B04210D002B070BD0DF107052046294616
:102A3000012200F08BF8204629460122FFF7BAFF59
:102A40002068B042EED140F27005C2F2000505F1F7
:102A5000180120461222FFF7FDFEAC7F287E697E1A
:102A600085F83040B5F81F4085F82A00A5F83140B8
:102A700095F8214061F30A20AA7EA887A0F580601E
:102A800095F81BC085F82B1085F83340D5F8224007
:102A9000D5F82630C90800EE100A9FED2A1A62F315
:102AA0004A11B8EEC00A2E7FC5E90D434FEA8C03E8
:102AB00020EE010AA1F5806085F82C2043EA9212ED
:102AC00085ED110A85ED020A00EE100A66F38A22EE
:102AD000B8EEC00A95F81DE020EE010AA2F580606C
:102AE000730885ED120A85ED030A00EE100A6EF3F5
:102AF000CA13B8EEC00A20EE010AA3F5806085ED86
:102B0000130A85ED040A00EE100AB8EEC00A49F671
:102B10000C0020EE010AC3F6C62085F82DC085F80A
:102B20002E6085F82FE0E987A5F84020A5F842300F
:102B300085ED140A85ED050A286085ED010A02B0CD
:102B400070BD00BF0C98C63A70470000034690F86D
:102B5000410020281CBF0220704700294FF00100CF
:102B600018BF002A00D170471962002021219A84E1
:102B7000DA84586483F841101968CA6842F0800208
:102B8000CA60704770470000FEE7000080B540F261
:102B9000C40046F20041C2F20000C4F20001032268
:102BA000002380E80E0000F10C014FF4102C4FF4CC
:102BB000401E81E8085083618383FDF711FE0028E1
:102BC00008BF80BDBDE88040FDF74CBC80B582B039
:102BD0000020019043F63000C4F202000168002298
:102BE00041F4800101600068002100F48000019040
:102BF00001983A20FEF78AFA3A2002B0BDE88040F8
:102C0000FEF770BA70B586B0002543F63000059522
:102C10000095C4F20200016841F2004441F0400115
:102C200001600168C4F2020401F0400100910099C2
:102C300000950168002241F00101016001684FF434
:102C4000804601F00101009100990095016841F072
:102C500002010160016801F00201009100990095F4
:102C6000016841F008010160016801F0080100916C
:102C700000990095016841F080010160016801F050
:102C80008001009100990095016841F010010160F8
:102C9000016801F01001009100990095016841F070
:102CA0002001016000684FF4804100F02000009096
:102CB00000982046FEF7A0F90120CDE9020501A900
:102CC000204601960495FEF7C3F806B070BD0000DB
:102CD000B0B59CB0002540F24C10C4F201050021B3
:102CE000C2F2000042F2273244F61F631691CDE98A
:102CF00014111191CDE90F11CDE90D11CDE90B1191
:102D0000CDE90911CDE90711CDE90511CDE903118F
:102D1000CDE90111C0E90052C0E90213C0E9041174
:102D20008161FEF7D1FD002818BFFDF79BFB4FF432
:102D30008050139040F24C10C2F2000013A9FEF72D
:102D40009DFE002818BFFDF78DFB40F24C10C2F22B
:102D50000000FFF71FF9002818BFFDF783FB40F2C2
:102D60004C100024C2F2000010A9CDE91044FEF777
:102D70004FFD002818BFFDF775FB6020CDE9090461
:102D800040F24C10C2F2000009A90422CDE90B4424
:102D9000CDE90D440F94FEF7EBFF002818BFFDF7B7
:102DA00061FB40F24C1400204FF40051C2F20004C9
:102DB0000590CDE90300CDE901000691089001A935
:102DC0002046FEF7FFFC002818BFFDF74BFB2068EC
:102DD000A84201D01CB0B0BD002043F630011790CE
:102DE000C4F202010A6842F010020A60096801F0A8
:102DF0001001179117994FF4006117910221CDE945
:102E000018101A9001201B9005F5883017A9FEF7BD
:102E10001FF81CB0B0BD000080B582B040F2941025
:102E200041F200020021C2F20000C4F2000242F2AC
:102E3000273342F20F7CCDE90011C0E90023C0E93D
:102E4000021C8161FEF740FD002818BFFDF70AFB58
:102E500040F29410C2F200006946FEF7D9FC002847
:102E600018BFFDF7FFFA02B080BD000010B540F2B8
:102E7000DC1041F2000C48F2A062C2F20000C4F281
:102E8000010CC0F201024FF4805300214FF4806E18
:102E90000C24C0E900C2C0E90231C0E904E4C0E981
:102EA0000611FFF70FFC002808BF10BDBDE8104059
:102EB000FDF7D8BA80B540F2242041F20041C2F2B9
:102EC0000000C4F201014FF4E132002380E80E005B
:102ED00000F10C014FF4806C4FF00C0E81E80850AB
:102EE000C0E90633FFF7EEFB002808BF80BDBDE850
:102EF0008040FDF7B7BA0000FEE70000FEE70000E3
:102F00007047000070470000FEF782B880B592B0AD
:102F1000002043F64001CDE90A00CDE90800059004
:102F2000CDE90300CDE901000090C4F202010A6876
:102F300042F080520A60096801F0805100910099C6
:102F4000009047F20000C4F20000016841F44041E3
:102F5000016000684FF4800100F440400090009848
:102F6000012006904FF480300D9106210790022039
:102F70000E91B4210C90CDE90F100420119006A8F9
:102F8000FEF74CFA10B172B6FEE700BFFEF7FAF892
:102F900010B172B6FEE700BF0F2001900220029030
:102FA000002003904FF4A05004904FF480500590FF
:102FB00001A80521FEF724F910B172B6FEE700BFA3
:102FC00012B080BD4EF68850CEF20000016841F488
:102FD000700101607047000040F24C10C2F2000026
:102FE000FEF71CBE40F24C10C2F20000FEF716BE07
:102FF00040F24C10C2F20000FEF710BE40F24C103E
:10300000C2F20000FEF70ABE40F29410C2F20000C5
:10301000FEF704BE10B540F6FF3E0368C4F2000E92
:1030200040F2004C7045C4F2010C27DCB0F1804F37
:1030300031D040F20042C4F2000290422BD040F660
:103040000002C4F20002904225D041F6FF72C4F2A1
:103050000002904229DC70453CDCB0F1804F5FD02B
:1030600040F20042C4F20002904259D040F6000201
:10307000C4F20002904253D056E000BF40F6004236
:10308000C4F20002904206D0604504D00022C4F28F
:1030900001029042D9D14A6823F07003134341F6EC
:1030A000FF72C4F200029042D5DD43F6FF72C4F213
:1030B0000102904222DC42F20002C4F2000290427D
:1030C0002ED00022C4F20102904229D0604527D0C0
:1030D0002AE000BF40F60042C4F2000290421FD036
:1030E00041F60002C4F20002904219D041F60042BB
:1030F000C4F20002904213D016E000BF44F2000276
:10310000C4F2010290420BD044F60002C4F2010264
:10311000904205D044F20042C4F20102904203D131
:10312000CA6823F44073134323F080024B69D1F83B
:1031300000E08C681A430260C46240F48062C0F808
:1031400028E0624504BF0969016301214161016909
:10315000C90708BF10BD016921F00101016110BD5F
:10316000806B0021C185C184FEF7F8BF806B0168C8
:103170004A6990F84130212B2DD112F080022AD0DB
:103180000021C184016851E8031F026821F0C001D9
:1031900042E80313DBB1016851E8031F026821F024
:1031A000C00142E8031393B1016851E8031F0268AC
:1031B00021F0C00142E803134BB1016851E8031F3D
:1031C000026821F0C00142E80313002BDAD120216C
:1031D00080F841100168496990F84220222A40F0A5
:1031E0007D8011F0400179D00021C185016851E84E
:1031F000031F026821F4907142E80313BBB3016816
:1032000051E8031F026821F4907142E8031373B37D
:10321000016851E8031F026821F4907142E803132A
:103220002BB3016851E8031F026821F4907142E852
:103230000313002BDAD11AE0016851E8051F026878
:1032400021F0010142E80513DBB1016851E8051FD7
:10325000026821F0010142E8051393B1016851E8C9
:10326000051F026821F0010142E805134BB1016816
:1032700051E8051F026821F0010142E80513002B07
:10328000DAD1016B012924D1016851E8031F0268DA
:1032900021F0100142E80313DBB1016851E8031F7C
:1032A000026821F0100142E8031393B1016851E86C
:1032B000031F026821F0100142E803134BB10168BB
:1032C00051E8031F026821F0100142E80313002BAC
:1032D000DAD1202180F8421000210163416C41F0D5
:1032E00010014164FEF73ABF0168806B0968C905A7
:1032F00000F19F800021C185016851E8031F026829
:1033000021F4807142E80313E3B1016851E8031F1F
:10331000026821F4807142E803139BB1016851E80F
:10332000031F026821F4807142E8031353B101685E
:1033300051E8031F026821F4807142E80313002B57
:10334000DAD100BF016851E8051F026821F00101D0
:1033500042E80513BBB3016851E8051F026821F07C
:10336000010142E8051373B3016851E8051F0268C3
:1033700021F0010142E805132BB3016851E8051F54
:10338000026821F0010142E80513002BDAD11AE0AE
:10339000016851E8051F026821F0400142E8051369
:1033A000DBB1016851E8051F026821F0400142E8E5
:1033B000051393B1016851E8051F026821F040012F
:1033C00042E805134BB1016851E8051F026821F07E
:1033D000400142E80513002BDAD1202180F8421089
:1033E000016B012925D100BF016851E8031F026864
:1033F00021F0100142E80313DBB1016851E8031F1B
:10340000026821F0100142E8031393B1016851E80A
:10341000031F026821F0100142E803134BB1016859
:1034200051E8031F026821F0100142E80313002B4A
:10343000DAD100214163016B012918BFFFF7E4BA1B
:10344000818DFEF789BE0000806B01214163016B15
:10345000012918BFFFF778BB818D4908FEF77CBEB4
:1034600081B090F84210222921D183680246B3F539
:10347000805F09D152F8281F52F8183C002B63D006
:1034800003685B680AE000BF52F8281F13B903699C
:10349000002BF5D003685B6803F07F030B701168A5
:1034A00001311160C18D01390A04C18502D001B01A
:1034B000704700BF0168CA6822F02002CA60CA686B
:1034C00022F48072CA604A6922F001024A61202116
:1034D00080F8421000214163026B012A3CD1016354
:1034E000016851E8031F026821F0100142E803134C
:1034F000DBB1016851E8031F026821F0100142E8C6
:10350000031393B1016851E8031F026821F0100111
:1035100042E803134BB1016851E8031F026821F030
:10352000100142E80313002BDAD101680A68D206C1
:1035300006D5002200920A6800924968009100991D
:10354000818D01B0FEF708BE026852686FF35F22FA
:1035500021F8022B8162A5E701B0FFF755BA000000
:1035600010B504460068D4E902C22369016921F458
:10357000405111430161626943EA0C01E36911435F
:10358000C268194349F20C639A431143C16041690F
:10359000A26921F4407141F20043114340F480627A
:1035A000C4F201039A42416102D1FDF7EDFE01E050
:1035B000FDF7D6FEE16963681922B1F5004FA0FB63
:1035C000020123D15A00DB0FFCF760FE48F21F51C5
:1035D000C5F2EB11A0FB01235A094FF69C73C0F60C
:1035E000FF7303F1805302FB0300322303EBC0009F
:1035F000A0FB01014FF4F87000EA111000EB02107B
:10360000C1F3421108442168886010BD9A009B0FE5
:10361000FCF73CFE48F21F51C5F2EB11A0FB012361
:103620005A094FF69C73C0F6FF7302FB0300322366
:1036300003EB0010A0FB0101F02000EA511000EBA9
:103640000210C1F3431108442168886010BD0000D6
:1036500040F2DC10C2F20000FEF782BD40F22420EE
:10366000C2F20000FEF77CBDFEE7000090B0FDF75F
:10367000DDFCFFF74BFCFFF7C5FAFFF7A7FAFFF7F2
:1036800027FBFFF7C9FBFFF715FCFFF77FFAFFF7F2
:10369000EDFB40F29410C2F20000FEF799F940F2FF
:1036A0004C14C2F200042046FEF792F92046042191
:1036B000FEF7A2FC06AC20462821FCF75FFE0E2098
:1036C00040F2C4050B900120C2F20005CDE90D00C7
:1036D00028462146FCF7E2FE2846FDF741F9284638
:1036E0000221FCF7C3FE40F2DC10C2F200000DF133
:1036F00006011222FFF7AEF8FEE7F1EE100A4FF6D0
:10370000FF71C0F2C03120EA010040F04070E1EEEC
:10371000100A7047000000000000000001020304CE
:10372000060708090000000001020304020000006F
:10373000040000000800000010000000FDFFFFFF73
:10374000FBFFFFFFF7FFFFFFEFFFFFFF0006101675
:103750000006101678370008000000201000000056
:10376000E801000888370008100000206008000009
:10377000040200080000000001000000100000002A
:083780000024F4000000000029
:04000005080001AD41
:00000001FF
