:020000040800F2
:1000000000000320D10B0008510800085308000825
:1000100055080008570800085908000800000000AB
:100020000000000000000000000000005B08000865
:100030005D080008000000005F0800086108000873
:10004000210C0008210C0008210C0008210C0008DC
:10005000210C0008210C0008210C0008210C0008CC
:10006000210C0008210C0008210C0008210C0008BC
:10007000210C0008210C0008210C0008210C0008AC
:10008000210C0008210C0008210C0008210C00089C
:1000900069080008210C0008210C0008210C000848
:1000A000790800088908000899080008A9080008CC
:1000B000210C0008210C0008210C0008210C00086C
:1000C000210C0008210C0008210C0008210C00085C
:1000D000210C0008210C0008210C0008210C00084C
:1000E000210C0008210C0008210C0008210C00083C
:1000F000210C0008210C0008210C0008210C00082C
:10010000210C0008210C0008210C0008210C00081B
:10011000210C0008210C0008B9080008210C000877
:10012000210C0008210C0008210C0008210C0008FB
:10013000210C0008210C0008210C0008210C0008EB
:10014000210C0008210C0008210C0008210C0008DB
:10015000210C0008210C0008210C0008C908000827
:10016000210C0008210C0008210C0008210C0008BB
:10017000210C0008210C0008210C000800000000E0
:10018000210C0008210C0008210C0008210C00089B
:10019000210C0008210C0008210C0008210C00088B
:0C01A0000000000000000000210C00081E
:1001AC0010B5054C237833B9044B13B10448AFF3A5
:1001BC0000800123237010BD2C00002000000000E3
:1001CC00E82F000808B5034B1BB103490348AFF3F4
:1001DC00008008BD0000000030000020E82F00085F
:1001EC0053B94AB9002908BF00281CBF4FF0FF3192
:1001FC004FF0FF3000F06AB9ADF1080C6DE904CE98
:10020C0000F006F8DDF804E0DDE9022304B07047E5
:10021C002DE9F047089D0C46002B4ED194468C4599
:10022C008646B2FA82F262D94AB1C2F120039140F9
:10023C0020FA03F30CFA02FC194300FA02FE4FEA0F
:10024C001C471FFA8CF6B1FBF7F44FEA1E4307FB71
:10025C00141143EA014304FB06F199420AD91CEB41
:10026C00030304F1FF3080F01281994240F20F81B8
:10027C00023C6344591A1FFA8EF3B1FBF7F007FBEB
:10028C00101143EA014300FB06F69E420AD91CEB0F
:10029C00030300F1FF3180F0FC809E4240F2F980B4
:1002AC00634402389B1B40EA044000211DB1D3403B
:1002BC000022C5E90032BDE8F0878B4205D90DB1AB
:1002CC00C5E9000100210846F5E7B3FA83F10029DE
:1002DC0046D1A34202D39042C0F0F080861A64EB60
:1002EC0003030120002DE6D0C5E90063E3E7002AF3
:1002FC0040F09080A1EB0C044FEA1C481FFA8CF7DD
:10030C000121B4FBF8F64FEA1E4308FB164443EAFE
:10031C00044307FB06F0984208D91CEB030306F1D3
:10032C00FF3402D2984200F2CD8026461C1A1FFAE6
:10033C008EF3B4FBF8F008FB104443EA044300FBD3
:10034C0007F79F4208D91CEB030300F1FF3402D2DC
:10035C009F4200F2B0802046DB1B40EA0640A5E736
:10036C00C1F120068B4022FA06F71F4320FA06FC47
:10037C0004FA01F343EA0C03F44000FA01F8380CD8
:10038C004FEA1349B4FBF0FE1FFA87FC00FB1E4436
:10039C0049EA04440EFB0CF9A14502FA01F20AD910
:1003AC003C190EF1FF3A80F08480A14540F2818027
:1003BC00AEF1020E3C44A4EB09041FFA83F9B4FB22
:1003CC00F0F300FB134449EA044403FB0CFCA44582
:1003DC0007D93C1903F1FF3067D2A44565D9023B1C
:1003EC003C4443EA0E40A0FB0293A4EB0C049C4259
:1003FC00CE469C4651D34ED055B1B8EB0E0364EBB0
:10040C000C0404FA06F6CB401E43CC40C5E900644C
:10041C00002150E7C2F1200320FA03F10CFA02FC90
:10042C0024FA03F394400C434FEA1C4800FA02FEF2
:10043C001FFA8CF7B3FBF8F008FB1031230C43EADE
:10044C00014300FB07F1994208D91CEB030300F1AF
:10045C00FF362CD299422AD9023863445B1AA4B2D3
:10046C00B3FBF8F108FB113344EA034401FB07F337
:10047C00A34208D91CEB040401F1FF3613D2A342AA
:10048C0011D902396444E41A41EA004139E70446BF
:10049C00F0E6084606E7C845AED2B9EB020E63EBB0
:1004AC00070C0138A8E73146EDE7034699E73046DB
:1004BC00D4E7D6467FE7634402384DE70646234629
:1004CC0008460FE7023E634430E700BF704700BFA9
:1004DC0001EB0020704700000268184B1B689A4221
:1004EC0000D0704770B588B00446154E3346154A97
:1004FC00002100F0CAFD0025019502950395049595
:10050C000595069507954FF4007301930823059301
:10051C00F178B078FFF7DCFF0B4B18603560756035
:10052C00B0F57A7F01D27022F270084B044A01A90F
:10053C00204600F035FD08B070BD00BF580000200B
:10054C005000002000000020480000204C0000203B
:10055C0008B50D480D4B03600323436000238360F3
:10056C00C3604FF4102202614FF4401242610376D3
:10057C0043768376C3760377437700F09FFB00B90D
:10058C0008BD00F0A1F8FBE7580000200064004013
:10059C0010B588B000230393049305930693079337
:1005AC000268184B9A4201D008B010BD0024019487
:1005BC0003F5EA331A6C42F000721A641A6C02F0FA
:1005CC0000720192019A02941A6B42F008021A63AB
:1005DC001B6B03F008030293029B03230393022279
:1005EC00049206930923079303A9074801F020F806
:1005FC0022462146142000F095FF142000F0A2FFA3
:10060C00D2E700BF00640040000C024030B58DB052
:10061C0000240794089409940A940B940194284B91
:10062C001A6B42F040021A631A6B02F040020192FC
:10063C00019A02941A6B42F001021A631A6B02F0CF
:10064C0001020292029A03941A6B42F008021A6396
:10065C001A6B02F008020392039A04941A6B42F08C
:10066C0080021A631A6B02F080020492049A0594B9
:10067C001A6B42F010021A631A6B02F01002059208
:10068C00059A06941A6B42F020021A631B6B03F056
:10069C0020030693069B0B4D22464FF480412846BF
:1006AC0001F0CCF84FF4804307930123089309948D
:1006BC000A9407A9284600F0BBFF0DB030BD00BF5F
:1006CC00003802400014024072B6FEE700B595B047
:1006DC003022002108A802F0EFFB002303930493BF
:1006EC000593069307930193234A116C41F08051B3
:1006FC001164126C02F080520192019A02931F4B0A
:10070C001A6842F440421A601B6803F44043029397
:10071C00029B012308934FF48033099302230E9319
:10072C004FF480020F9206221092B422119212936F
:10073C000423139308A801F0C5F8B0B901F084F8AC
:10074C00A8B90F23039302230493002305934FF4BA
:10075C00A05306934FF480530793052103A801F08F
:10076C0001FB30B915B05DF804FBFFF7ADFFFFF7E7
:10077C00ABFFFFF7A9FF00BF00380240007000403C
:10078C0000B58FB000F06EFAFFF7A0FFFFF73EFF49
:10079C0000F046F900F09CF800F0B8F9FFF7D8FE2D
:1007AC00154801F07BFC154C204601F077FC042128
:1007BC00204601F071FF0DF1100C114C0FCCACE880
:1007CC000F000FCCACE80F0094E803008CE803009A
:1007DC000C4C04A9204600F017FB204600F0B2FB9D
:1007EC000221204600F006FD074BEC460FCBACE88F
:1007FC0007008CF80030FEE780000020C8000020C5
:10080C0000300008580000202830000882B0002179
:10081C0000910B4B5A6C42F480425A645A6C02F4AD
:10082C0080420092009A01911A6C42F080521A6434
:10083C001B6C03F080530193019B02B0704700BF07
:10084C0000380240FEE7FEE7FEE7FEE7FEE77047F2
:10085C007047704708B500F01FFA08BD08B502488C
:10086C0000F0E6FC08BD00BF5800002008B50248A7
:10087C0001F05EFC08BD00BFC800002008B50248AE
:10088C0001F056FC08BD00BFC800002008B50248A6
:10089C0001F04EFC08BD00BFC800002008B502489E
:1008AC0001F046FC08BD00BFC800002008B5024896
:1008BC0001F03EFC08BD00BF8000002008B50248D6
:1008CC0002F0B8F908BD00BF10010020704700000D
:1008DC0000B583B00023009301930F480F4A0260C8
:1008EC0042F227324260836042F20F72C26083612F
:1008FC0001F03AFD50B90023009301936946064874
:10090C0001F084FF28B903B05DF804FBFFF7DCFEAF
:10091C00F1E7FFF7D9FEF6E7800000200010004059
:10092C0010B582B00368244A934204D0234A934200
:10093C002ED002B010BD00240094214B5A6C42F012
:10094C0001025A645B6C03F001030093009B224686
:10095C002146182000F0E6FD182000F0F3FD224699
:10096C002146192000F0DEFD192000F0EBFD224697
:10097C0021461A2000F0D6FD1A2000F0E3FD224695
:10098C0021461B2000F0CEFD1B2000F0DBFDD0E744
:10099C00002101910A4B1A6C42F010021A641B6C74
:1009AC0003F010030193019B0A46362000F0BAFDB8
:1009BC00362000F0C7FDBCE70000014000100040ED
:1009CC000038024000B587B00023019302930393D3
:1009DC000493059302680F4B9A4202D007B05DF85E
:1009EC0004FB002300930C4B1A6B42F010021A63A9
:1009FC001B6B03F010030093009B4FF400630193F7
:100A0C00022302930123059301A9044800F010FE70
:100A1C00E4E700BF00000140003802400010024033
:100A2C0010B596B000241294139414941594109449
:100A3C00119409940A940B940C940D940E940F94A5
:100A4C002022214601A802F037FA2E482E4B0360D3
:100A5C0042F227334360846044F61F63C360046131
:100A6C004461846101F080FC002838D14FF480533C
:100A7C00129312A9234801F081FD002832D121489C
:100A8C0001F09EFC002830D100231093119310A983
:100A9C001C4801F0BBFE58BB6023099300230A934A
:100AAC000B930C930D930E930F93042209A91548E5
:100ABC0001F0EAFCF8B90023019302930393049329
:100ACC0005934FF400520692089301A90D4801F0CA
:100ADC00E3FE98B90B48FFF775FF16B010BDFFF792
:100AEC00F3FDC3E7FFF7F0FDC9E7FFF7EDFDCBE73B
:100AFC00FFF7EAFDD0E7FFF7E7FDDCE7FFF7E4FDE2
:100B0C00E8E700BFC80000200000014008B50B4812
:100B1C000B4B03604FF4E133436000238360C360ED
:100B2C004FF4806202610C2242618361C36101F067
:100B3C00C5FF00B908BDFFF7C7FDFBE7100100209A
:100B4C000014014010B588B000230393049305935F
:100B5C00069307930268194B9A4201D008B010BD56
:100B6C000024019403F592335A6C42F020025A642B
:100B7C005A6C02F020020192019A02941A6B42F014
:100B8C0040021A631B6B03F040030293029B4FF469
:100B9C0084430393022304930323069308230793AC
:100BAC0003A9074800F044FD22462146472000F0E7
:100BBC00B9FC472000F0C6FCD0E700BF0014014090
:100BCC0000180240DFF834D0FFF780FE0C480D49C6
:100BDC000D4A002302E0D458C4500433C4188C428C
:100BEC00F9D30A4A0A4C002301E013600432A242F2
:100BFC00FBD302F069F9FFF7C3FD70470000032037
:100C0C00000000202C000020643000082C00002084
:100C1C00F4020020FEE7000010B504460E4B1A78D3
:100C2C004FF47A73B3FBF2F30C4A1068B0FBF3F099
:100C3C0000F08CFC68B90F2C01D901200AE00022CD
:100C4C0021464FF0FF3000F06DFC054B1C6000207E
:100C5C0000E0012010BD00BF200000201C0000207F
:100C6C002400002008B50B4B1A6842F400721A607D
:100C7C001A6842F480621A601A6842F480721A6030
:100C8C00032000F03DFC0F20FFF7C6FFFFF7BEFD71
:100C9C00002008BD003C0240034A1168034B1B783E
:100CAC000B441360704700BF580100202000002047
:100CBC00014B1868704700BF58010020002800F055
:100CCC00A18038B5044690F82030D3B1226813685F
:100CDC0043F001031360FFF7EBFF054623685A68E6
:100CEC0012F0010F10D1FFF7E3FF401B0A28F5D9D2
:100CFC00636A43F400336362052384F820300120D7
:100D0C0038BDFFF745FCE1E71A6822F002021A60D1
:100D1C00FFF7CEFF054623685A6812F0020F0DD07C
:100D2C00FFF7C6FF401B0A28F5D9636A43F400336A
:100D3C006362052384F820300120E1E7227E012A3A
:100D4C003DD01A6822F080021A60637E012B3BD0E2
:100D5C002268136823F040031360A37E012B39D063
:100D6C002268136823F020031360E37E012B37D035
:100D7C002268136843F010031360237F012B35D0D6
:100D8C002268136823F008031360637F012B33D0B0
:100D9C002268136823F004031360A368E26813430A
:100DAC0022691343626913436268013A2168134351
:100DBC00CB6100206062012384F82030A0E71A6820
:100DCC0042F080021A60C0E72268136843F04003C7
:100DDC001360C2E72268136843F020031360C4E772
:100DEC002268136823F010031360C6E722681368A7
:100DFC0043F008031360C8E72268136843F0040348
:100E0C001360CAE70120704790F82030013BDBB239
:100E1C00012B05D9436A43F48023436201207047B8
:100E2C0010B5474BD3F8002242F00102C3F8002260
:100E3C00D3F8002222F47C52C3F80022D3F800220B
:100E4C00486A42EA0022C3F800224A6902F01F02F3
:100E5C00012000FA02F2D3F81C026FEA020C20EA1D
:100E6C000200C3F81C02CB69CBB9354BD3F80C028A
:100E7C000CEA0000C3F80C028C884869D1F80CE02D
:100E8C0044EA0E44483043F830408C68088840EA05
:100E9C0004404C6904F1480E03EBCE035860CB6957
:100EAC00012B1ED08B69002B35D12548D0F804328C
:100EBC000CEA0303C0F804320B699BBB2048D0F842
:100ECC0014320CEA0303C0F814320B6A012B30D035
:100EDC001B4AD2F8003223F00103C2F80032002082
:100EEC0010BD174BD3F80C021043C3F80C028C88BE
:100EFC004869D1F800E044EA0E44483043F83040E9
:100F0C0088894C69D1F808E040EA0E40483403EB7C
:100F1C00C4035860C6E70A48D0F804321343C0F83B
:100F2C000432C9E70648D0F814321343C0F814321F
:100F3C00CBE70349D1F81C321343C1F81C32C7E785
:100F4C000064004070B5044690F82050EDB2012DBD
:100F5C0006D0436A43F4002343620125284670BD42
:100F6C00022380F820300268136823F00103136019
:100F7C00FFF79EFE064623685B6813F0010F0CD04A
:100F8C00FFF796FE831B0A2BF5D9636A43F40033F3
:100F9C006362052384F82030E0E700256562DDE715
:100FAC0030B590F820C00468A4680CF1FF3C5FFADF
:100FBC008CFCBCF1010F62D814F0E05F59D0C4F383
:100FCC00016C012404FA0CF41C608B68002B3DD1DD
:100FDC000D68CB68046843EA45550CF118031B01F6
:100FEC00E55003680C690CF1180E03EB0E135C60F2
:100FFC000B7D012B35D0D17993791B0443EA016326
:10100C00517943EA012314790168234301EB0C1154
:10101C00C1F88C31D17893781B0443EA0163517881
:10102C0043EA0123117802680B4302EB0C12C2F85D
:10103C00883102680CF1180C4FEA0C1C52F80C3079
:10104C0043F0010342F80C3000201DE04C6843EAE9
:10105C00C403CC6823430CF11804240105682B51FC
:10106C00BFE7036803EB0E13596841F480715960B4
:10107C00C1E7436A43F400134362012004E0436A6E
:10108C0043F480234362012030BD90F820C00CF162
:10109C00FF3C5FFA8CFCBCF1010F00F2A58030B470
:1010AC0051B90468E46814F0030F10D1436A43F497
:1010BC000013436201207EE00468246914F0030FDE
:1010CC0005D1436A43F400134362012073E00568C1
:1010DC0001F11B0424012C5904F004049460002C2D
:1010EC006BD1056801F11B0424012C59640D1460AB
:1010FC00046801F11B0C4FEA0C1C54F80C4004F072
:10110C000204D4600468A444DCF8045015F0080F01
:10111C005BD008241461046801F11B0C04EB0C1463
:10112C006468C4F307249461046804EB0C146468C9
:10113C00240C5461026802EB0112D2F8B8211A7027
:10114C00026802EB0112D2F8B821C2F307225A70DE
:10115C00026802EB0112D2F8B821C2F307429A706E
:10116C00026802EB0112D2F8B821120EDA70026892
:10117C0002EB0112D2F8BC211A71026802EB0112C7
:10118C00D2F8BC21C2F307225A71026802EB011299
:10119C00D2F8BC21C2F307429A71026802EB011229
:1011AC00D2F8BC21120EDA71C1B90268D36843F0CF
:1011BC002003D360002030BC7047056801F11B048C
:1011CC0024012C59E408546092E701F11B0504EB4F
:1011DC000514646804F00F0414619CE70268136939
:1011EC0043F020031361E5E7436A43F48023436231
:1011FC000120704790F82030013BDBB2012B05D960
:10120C00436A43F4802343620120704702685369A8
:10121C000B4353610020704770477047704770470D
:10122C0070477047704770477047704770477047FA
:10123C002DE9F84F054603685C69D3F804809F6874
:10124C00D3F80CB0D3F810A0D3F8189014F0010612
:10125C003BD017F0010616D001229A6017F0020F4E
:10126C0008D117F0040F0CD117F0080606D04FF474
:10127C00805608E0FFF7D0FF002604E0FFF7CFFF11
:10128C0001E04FF4006617F4807F0DD02B684FF40B
:10129C0080729A6017F4007F40F0868017F4806F9C
:1012AC0000F0868046F4005617F4803F0DD02B6872
:1012BC004FF480329A6017F4003F40F0838017F4AB
:1012CC00802F00F0838046F4004614F0080F07D0FE
:1012DC001BF0100F04D046F400762B681022DA6055
:1012EC0014F0040F02D01BF0080F79D114F0020F88
:1012FC0004D02B68DB6813F0030F78D114F0400F87
:10130C0007D01AF0100F04D046F480662B68102218
:10131C001A6114F0200F02D01AF0080F6BD114F0E0
:10132C00100F04D02B681B6913F0030F6AD114F44F
:10133C00003F02D018F0100F68D114F4803F02D097
:10134C0018F0080F69D114F4004F7AD018F0040F7C
:10135C0074D014F4807F04D019F0010F01D046F042
:10136C00010614F4007F04D019F0020F01D046F0EE
:10137C00020614F4806F04D019F0040F01D046F06B
:10138C00040614F4006F59D019F0700956D0B9F155
:10139C00400F65D058D8B9F1200F5ED0B9F1300F9D
:1013AC0042D146F0200644E02846FFF736FF7BE7A3
:1013BC0017F4006F02D046F4804675E72846FFF715
:1013CC002FFF71E72846FFF729FF7EE717F4002F60
:1013DC0002D046F4803678E72846FFF722FF74E700
:1013EC002B680822DA602846FFF71CFF7EE72846A8
:1013FC00FFF772F882E72B6808221A612846FFF77C
:10140C0013FF8CE72846FFF70EFF90E72B6810229E
:10141C005A602846FFF709FF8FE72B6808225A60AD
:10142C002846FFF703FF8EE7B9F1100F01D146F004
:10143C0008062A68936923F0700393612B680422D1
:10144C005A609EB9BDE8F88FB9F1500F0BD0B9F1C5
:10145C00600FEED146F48076EBE746F01006E8E735
:10146C0046F04006E5E746F08006E2E76B6A334358
:10147C006B622846FFF7DBFEE4E70000002807DB81
:10148C0000F01F02400901239340024A42F8203029
:10149C00704700BF00E100E0002808DB0901C9B279
:1014AC0000F1604000F5614080F80013704700F0D7
:1014BC000F000901C9B2014B1954704714ED00E03B
:1014CC0000B500F00700C0F1070CBCF1040F28BFF9
:1014DC004FF0040C031D062B0FD9C31E4FF0FF3E1B
:1014EC000EFA0CF021EA000199400EFA03FE22EAF2
:1014FC000E0241EA02005DF804FB0023EEE7000057
:10150C00074AD36823F4E0631B041B0C000200F4AD
:10151C00E060034343F0BF6343F40033D360704790
:10152C0000ED00E010B50446054BD868C0F302206E
:10153C00FFF7C6FF01462046FFF7AEFF10BD00BF08
:10154C0000ED00E008B5FFF799FF08BD0138B0F1D8
:10155C00807F0BD24FF0E0235861054AF02182F8CE
:10156C0023100020986107221A61704701207047F0
:10157C0000ED00E070B50446866DFFF799FB94F81A
:10158C003530DBB2022B06D080236365002384F850
:10159C003430012070BD05462268136823F0160311
:1015AC0013602268536923F080035361236CE3B109
:1015BC002268136823F0080313602268136823F071
:1015CC000103136023681B6813F0010F11D0FFF7A0
:1015DC006FFB431B052BF5D920236365032084F88F
:1015EC003500002384F83430D4E7A36C002BDFD112
:1015FC00E3E7E26D3F239340B360012384F8353079
:10160C00002084F83400C5E790F83530DBB2022BAB
:10161C0003D08023436501207047052380F83530C3
:10162C000268136823F00103136000207047000068
:10163C0000230F2B00F2F98030B583B069E0856888
:10164C004FEA430E032404FA0EF425EA0405CC6891
:10165C0004FA0EF42C438460446824EA02044A68B9
:10166C00C2F300129A402243426060E0DC08083466
:10167C0050F8242003F00705AD004FF00F0E0EFAC2
:10168C0005FE22EA0E0E0A69AA4042EA0E0240F852
:10169C00242060E0092200E0002202FA0EF22A4324
:1016AC000234624D45F82420614A94686FEA0C02BA
:1016BC0024EA0C05D1F804E01EF4801F01D04CEA9A
:1016CC0004055B4CA560E46802EA0405D1F804E06B
:1016DC001EF4001F01D04CEA0405554CE56064680B
:1016EC0002EA0405D1F804E01EF4003F01D04CEAF4
:1016FC0004054F4C6560246822404D6815F4803F0A
:10170C0001D04CEA04024A4C226001330F2B00F248
:10171C008A8001229A400C6804EA020C32EA040422
:10172C00F3D14C6804F00304013C012C87D94A68BE
:10173C0002F00302032A09D0C4685D000322AA4008
:10174C0024EA02048A68AA402243C2604A6802F072
:10175C000302022A8AD004684FEA430E032202FADB
:10176C000EF224EA02044A6802F0030202FA0EF2B4
:10177C00224302604A6812F4403FC6D00022019214
:10178C002C4A546C44F480445464526C02F48042ED
:10179C000192019A9C08A51C244A52F8255003F08A
:1017AC00030E4FEA8E0E0F2202FA0EF225EA020504
:1017BC00214A90423FF470AF02F58062904222D0F1
:1017CC0002F58062904220D002F5806290421ED0D9
:1017DC0002F5806290421CD002F5806290421AD0D1
:1017EC0002F58062904218D002F58062904216D0C9
:1017FC0002F58062904214D002F5806290423FF470
:10180C0049AF0A2249E7012247E7022245E70322B2
:10181C0043E7042241E705223FE706223DE7072282
:10182C003BE7082239E703B030BD70470038014070
:10183C00003C014000380240000002400AB18161C6
:10184C00704709048161704710B582B00023019381
:10185C00194B1A6C42F080521A641B6C03F08053C3
:10186C000193019B154B01221A64FFF721FA0446E0
:10187C00134B5B6813F4803F08D1FFF719FA001B78
:10188C00B0F57A7FF4D9032002B010BD0B4B0122C6
:10189C005A64FFF70DFA0446094B5B6813F4003FDA
:1018AC0007D1FFF705FA001BB0F57A7FF4D90320B6
:1018BC00EAE70020E8E700BF0038024000000E42D3
:1018CC0000700040002800F0E08170B582B0044642
:1018DC00036813F0010F3BD09F4B9B6803F00C0384
:1018EC00042B2CD09C4B9B6803F00C03082B21D0B1
:1018FC006368B3F5803F4FD0B3F5A02F52D0964B11
:10190C001A6822F480321A601A6822F480221A6053
:10191C006368002B50D0FFF7CBF905468E4B1B6844
:10192C0013F4003F14D1FFF7C3F9401B6428F5D919
:10193C000320B1E1884B5B6813F4800FD8D0864B41
:10194C001B6813F4003F03D06368002B00F09F81E9
:10195C00236813F0020F54D07F4B9B6813F00C0FCD
:10196C003ED07D4B9B6803F00C03082B33D0E3680F
:10197C00002B68D0794B01221A60FFF799F90546C4
:10198C00754B1B6813F0020F54D1FFF791F9401BF4
:10199C000228F5D903207FE16F4A136843F48033A2
:1019AC001360B5E76C4B1A6842F480221A601A680F
:1019BC0042F480321A60ABE7FFF77AF90546664BC2
:1019CC001B6813F4003FC3D0FFF772F9401B642867
:1019DC00F5D9032060E1604B5B6813F4800FC6D12E
:1019EC005D4B1B6813F0020F03D0E368012B40F032
:1019FC005081594A136823F0F803216943EAC10363
:101A0C001360236813F0080F42D063696BB3534B18
:101A1C000122C3F8802EFFF74BF905464E4B5B6F46
:101A2C0013F0020F34D1FFF743F9401B0228F5D90C
:101A3C00032031E1484A136823F0F803216943EA93
:101A4C00C1031360DDE7454B00221A60FFF730F944
:101A5C000546414B1B6813F0020FD2D0FFF728F953
:101A6C00401B0228F5D9032016E13C4B0022C3F899
:101A7C00802EFFF71DF90546374B5B6F13F0020FF5
:101A8C0006D0FFF715F9401B0228F5D9032003E116
:101A9C00236813F0040F77D02F4B1B6C13F0805F6F
:101AAC0033D1002301932C4B1A6C42F080521A64F0
:101ABC001B6C03F080530193019B0125284B1B6881
:101ACC0013F4807F23D0A368012B34D0052B38D09E
:101ADC00214B1A6F22F001021A671A6F22F00402CE
:101AEC001A67A368002B3DD0FFF7E2F806461A4BA5
:101AFC001B6F13F0020F46D1FFF7DAF8801B41F28F
:101B0C0088339842F3D90320C6E00025D6E7144A5F
:101B1C00136843F480731360FFF7CAF80646104B42
:101B2C001B6813F4807FCED1FFF7C2F8801B02280C
:101B3C00F5D90320B0E0084A136F43F00103136793
:101B4C00CFE7054B1A6F42F004021A671A6F42F086
:101B5C0001021A67C5E700BF003802400000474287
:101B6C0000700040FFF7A4F80646524B1B6F13F0B1
:101B7C00020F08D0FFF79CF8801B41F28833984283
:101B8C00F3D9032088E0EDB9A369002B00F0838022
:101B9C00484A926802F00C02082A51D0022B17D046
:101BAC00454B00221A66FFF783F80446414B1B682D
:101BBC0013F0007F42D0FFF77BF8001B0228F5D909
:101BCC00032069E03B4A136C23F080531364DBE77A
:101BDC00394B00221A66FFF76BF80546354B1B682C
:101BEC0013F0007F06D0FFF763F8401B0228F5D9ED
:101BFC00032051E0E369226A1343626A43EA8213C9
:101C0C00A26A5208013A43EA0243E26A43EA0263D7
:101C1C00284A5360284B01221A66FFF749F80446FC
:101C2C00244B1B6813F0007F06D1FFF741F8001B13
:101C3C000228F5D903202FE000202DE000202BE016
:101C4C00012B2BD01B4B5B6803F48001E2699142A2
:101C5C0026D103F03F02216A8A4223D1616A47F6FA
:101C6C00C0721A40B2EB811F1ED103F44031A26A3C
:101C7C005208013AB1EB024F18D103F07063E26ADB
:101C8C00B3EB026F14D1002006E001207047012055
:101C9C0002E0012000E0002002B070BD0120FBE753
:101CAC000120F9E70120F7E70120F5E70120F3E730
:101CBC000120F1E7003802400000474208B5264BEE
:101CCC009B6803F00C03042B41D0082B41D1224B11
:101CDC005A6802F03F025B6813F4800F12D01E4B5F
:101CEC005968C1F388111D480023A1FB0001FEF7C0
:101CFC0077FA194B5B68C3F3014301335B00B0FB0C
:101D0C00F3F027E0144B5868C0F388104FEA401CDE
:101D1C00BCEB000C6EEB0E0E4FEA8E1343EA9C6389
:101D2C004FEA8C11B1EB0C0163EB0E03DB0043EAC1
:101D3C005173C90011EB000C43F10003990200230D
:101D4C004FEA8C2041EA9C51FEF74AFAD1E703484E
:101D5C0000E0034808BD00BF00380240001BB7007C
:101D6C000024F400002800F09B8070B50D4604465A
:101D7C004F4B1B6803F00F038B4208D2CBB24C4A7B
:101D8C001370136803F00F038B4240F08B802368B1
:101D9C0013F0020F17D013F0040F04D0454A9368C8
:101DAC0043F4E0539360236813F0080F04D0414AC6
:101DBC00936843F4604393603E4A936823F0F003C6
:101DCC00A1680B439360236813F0010F32D0636852
:101DDC00012B21D09A1E012A25D9364A126812F0FD
:101DEC00020F61D033498A6822F0030213438B60DF
:101DFC00FEF75EFF06462F4B9B6803F00C036268F0
:101E0C00B3EB820F16D0FEF753FF801B41F28833E1
:101E1C009842F0D9032042E0264A126812F4003F9F
:101E2C00E0D101203BE0234A126812F0007FD9D1A7
:101E3C00012034E01E4B1B6803F00F03AB4207D9A3
:101E4C00EAB21B4B1A701B6803F00F03AB422DD187
:101E5C00236813F0040F06D0164A936823F4E0535A
:101E6C00E1680B439360236813F0080F07D0114A05
:101E7C00936823F46043216943EAC1039360FFF73D
:101E8C001DFF0C4B9B68C3F303130B4AD35CD84068
:101E9C000A4B18600A4B1868FEF7BEFE002070BD96
:101EAC00012070470120FAE70120F8E70120F6E74E
:101EBC00003C024000380240403000081C0000206A
:101ECC0024000020014B1868704700BF1C00002044
:101EDC0008B5FFF7F7FF044B9B68C3F38223034A53
:101EEC00D35CD84008BD00BF003802403830000831
:101EFC0008B5FFF7E7FF044B9B68C3F34233034A73
:101F0C00D35CD84008BD00BF003802403830000810
:101F1C0030B4036A026A22F00102026242688469E8
:101F2C0024F0730C0C6844EA0C0423F0020C8B684C
:101F3C0043EA0C03114DA84203D005F58065A84275
:101F4C0005D123F00803CD682B4323F004030B4D7C
:101F5C00A84203D005F58065A84207D122F440724F
:101F6C004D6945EA020C8A6942EA0C0242608461BE
:101F7C004A684263036230BC704700BF00000140F6
:101F8C0030B4036A026A22F4807202624268C46945
:101F9C0024F0730C0C6844EA0C0523F400738C6871
:101FAC0043EA0423114CA04203D004F58064A04200
:101FBC0006D123F40063CC6843EA042323F4806342
:101FCC000A4CA04203D004F58064A04207D122F44D
:101FDC0040524C6942EA04128C6942EA0412426093
:101FEC00C5614A68C263036230BC7047000001409F
:101FFC0030B4036A026A22F4805202624468C269F5
:10200C0022F4E6420D6842EA052223F400538D685F
:10201C0043EA0533094DA84203D005F58065A84273
:10202C0004D124F480444D6944EA85144460C261AF
:10203C004A680264036230BC704700BF0000014074
:10204C0010B4036A046A24F001040462846924F065
:10205C00F00C4CEA021223F00A030B438261036278
:10206C0010BC704710B4036A046A24F010040462B4
:10207C00846924F4704C4CEA023223F0A00343EA46
:10208C0001138261036210BC7047836823F07003F4
:10209C000B4343F0070383607047000090F83D301A
:1020AC00DBB2012B37D1022380F83D300268D368B4
:1020BC0043F00103D3600368194A934220D0B3F173
:1020CC00804F1DD0A2F57C42934219D002F580625C
:1020DC00934215D002F58062934211D002F57842FA
:1020EC0093420DD002F57052934209D0A2F594326E
:1020FC00934205D01A6842F001021A600020704722
:10210C009A6802F00702062A07D01A6842F0010208
:10211C001A6000207047012070470020704700BFF4
:10212C000000014070477047704770477047704718
:10213C0070B504460368DE681D6915F0020F10D0F7
:10214C0016F0020F0DD06FF002021A610123037713
:10215C0003689B6913F0030F5ED0FFF7E6FF0023C3
:10216C00237715F0040F12D016F0040F0FD023684C
:10217C006FF004021A610223237723689B6913F41E
:10218C00407F4FD02046FFF7D0FF0023237715F078
:10219C00080F12D016F0080F0FD023686FF008024A
:1021AC001A61042323772368DB6913F0030F40D0F3
:1021BC002046FFF7BAFF0023237715F0100F12D03B
:1021CC0016F0100F0FD023686FF010021A6108235D
:1021DC0023772368DB6913F4407F31D02046FFF767
:1021EC00A4FF0023237715F0010F02D016F0010F86
:1021FC002DD115F0800F02D016F0800F2FD115F0D5
:10220C00400F02D016F0400F31D115F0200F02D044
:10221C0016F0200F33D170BDFFF786FF2046FFF775
:10222C0085FF9CE72046FFF77FFF2046FFF77EFFE8
:10223C00ABE72046FFF778FF2046FFF777FFBAE7BA
:10224C002046FFF771FF2046FFF770FFC9E72368B0
:10225C006FF001021A612046FFF765FFC9E723689A
:10226C006FF080021A61204600F040FBC7E723683C
:10227C006FF040021A612046FFF759FFC5E723684B
:10228C006FF020021A61204600F02FFBC3E700001C
:10229C000368344A904212D0B0F1804F0FD0A2F5AF
:1022AC007C4290420BD002F58062904207D002F53E
:1022BC008062904203D002F57842904203D123F021
:1022CC0070034A681343274A90422AD0B0F1804FDA
:1022DC0027D0A2F57C42904223D002F58062904236
:1022EC001FD002F5806290421BD002F578429042DA
:1022FC0017D002F57052904213D002F580629042D2
:10230C000FD002F5806290420BD0A2F59832904229
:10231C0007D002F58062904203D002F580629042B1
:10232C0003D123F44073CA68134323F080034A6932
:10233C00134303608B68C3620B688362094B98423A
:10234C0003D003F58063984201D10B690363012329
:10235C004361036913F0010F03D0036923F00103F8
:10236C00036170470000014040B310B5044690F87B
:10237C003D30F3B1022384F83D30214651F8040B73
:10238C00FFF786FF012384F8463084F83E3084F84A
:10239C003F3084F8403084F8413084F8423084F87F
:1023AC00433084F8443084F8453084F83D300020C4
:1023BC0010BD80F83C30FEF7B3FADBE70120704724
:1023CC0040B310B5044690F83D30F3B1022384F8C5
:1023DC003D30214651F8040BFFF75AFF012384F8D6
:1023EC00463084F83E3084F83F3084F8403084F82E
:1023FC00413084F8423084F8433084F8443084F817
:10240C00453084F83D30002010BD80F83C30FFF79B
:10241C0089FEDBE70120704730B4036A026A22F0C0
:10242C00100202624468826922F4E6420D6842EAB4
:10243C00052223F020038D6843EA0513114DA842B1
:10244C0003D005F58065A84206D123F08003CD6842
:10245C0043EA051323F040030A4DA84203D005F5C7
:10246C008065A84207D124F440644D6944EA850490
:10247C008D6944EA8504446082614A688263036220
:10248C0030BC70470000014038B590F83C30012B4F
:10249C0066D004460D46012380F83C300C2A5AD8ED
:1024AC00DFE802F0075959591B59595930595959F4
:1024BC0044000068FFF72CFD2268936943F0080381
:1024CC0093612268936923F00403936122689369F2
:1024DC0029690B43936100203EE00068FFF79CFFE5
:1024EC002268936943F4006393612268936923F42F
:1024FC008063936122689369296943EA012393619C
:10250C00002029E00068FFF73BFD2268D36943F007
:10251C000803D3612268D36923F00403D3612268D2
:10252C00D36929690B43D361002015E00068FFF7DC
:10253C005FFD2268D36943F40063D3612268D369D9
:10254C0023F48063D3612268D369296943EA0123A8
:10255C00D361002000E00120002384F83C3038BD1A
:10256C000220FCE710B4846824F47F4C42EA032276
:10257C000A4342EA0C02826010BC704790F83C306F
:10258C00012B78D010B50446012380F83C3002238F
:10259C0080F83D300268936823F47F4323F077037F
:1025AC0093600B68602B4CD029D8402B54D00CD99D
:1025BC00502B22D1CA6849680068FFF741FD5021B1
:1025CC002068FFF762FD002005E0202B0DD009D913
:1025DC00302B0AD00120012384F83D30002384F8ED
:1025EC003C3010BD0BB1102B05D119462068FFF7FC
:1025FC004CFD0020EFE70120EDE70120EBE7B3F500
:10260C00805F34D0B3F5005F0CD1CB684A68896821
:10261C000068FFF7A7FF2268936843F48043936038
:10262C000020D8E7702B24D1CB684A6889680068F1
:10263C00FFF798FF2268936843F0770393600020BC
:10264C00C9E7CA6849680068FFF70CFD602120687B
:10265C00FFF71BFD0020BEE7CA6849680068FFF75A
:10266C00EFFC40212068FFF710FD0020B3E70020AD
:10267C00B1E70120AFE70220704701F01F014FF0D6
:10268C00010C0CFA01FC036A23EA0C030362036AD3
:10269C008A4013430362704710B50446084600296C
:1026AC0048D194F83E30DBB2013B18BF0123002B1C
:1026BC0040F0A380002856D1022384F83E302268D3
:1026CC00D36843F00203D360012201462068FFF770
:1026DC00D4FF23684C4A934203D002F580629342A4
:1026EC0003D15A6C42F400425A642368464A93421E
:1026FC0078D0B3F1804F75D0A2F57C42934271D063
:10270C0002F5806293426DD002F58062934269D0EB
:10271C0002F57842934265D002F57052934261D033
:10272C00A2F5943293425DD01A6842F001021A600D
:10273C00002061E0042908D008290DD094F841301C
:10274C00DBB2013B18BF0123B1E794F83F30DBB299
:10275C00013B18BF0123AAE794F84030DBB2013BE0
:10276C0018BF0123A3E7042824D008282BD0022368
:10277C0084F841300C2842D801A353F820F000BF54
:10278C00CB2600080B2800080B2800080B28000893
:10279C00C72700080B2800080B2800080B28000886
:1027AC00D92700080B2800080B2800080B28000864
:1027BC00E5270008022384F83F302268D36843F0F1
:1027CC000403D36080E7022384F840302268D36886
:1027DC0043F00803D36077E72268D36843F0100313
:1027EC00D36071E79A6802F00702062A09D01A68CA
:1027FC0042F001021A60002010BD0120FCE701200C
:10280C00FAE70020F8E700BF0000014090F83C20F8
:10281C00012A3CD010B40346012280F83C2002224D
:10282C0080F83D2002685068946820F0700C0868AD
:10283C0040EA0C0050601A68164882421AD0B2F175
:10284C00804F17D0A0F57C40824213D000F58060F9
:10285C0082420FD000F5806082420BD000F57840A8
:10286C00824207D000F57050824203D0A0F594301C
:10287C00824204D124F080044968214391600122F2
:10288C0083F83D20002083F83C0010BC70470220E8
:10289C00704700BF00000140024690F83C30012B0D
:1028AC0021D0012380F83C30CB6823F44073886836
:1028BC00034323F480634868034323F400630868EC
:1028CC00034323F480530869034323F400534869FA
:1028DC00034323F48043C9690B4311684B64002004
:1028EC0082F83C00704702207047704770470268BE
:1028FC0002F10C0353E8003F23F490730C3242E8CE
:10290C0000310029F3D1026802F1140353E8003FAF
:10291C0023F00103143242E800310029F3D1036B98
:10292C00012B05D0202380F842300023036370472D
:10293C00026802F10C0353E8003F23F010030C3241
:10294C0042E800310029F3D1ECE790F84130DBB2DA
:10295C00212B01D0022070478368B3F5805F17D01C
:10296C00036A5A1C02621A7803685A60C38C9BB2C1
:10297C00013B9BB2C3844BB90268D36823F080033C
:10298C00D3600268D36843F04003D36000207047E3
:10299C000369002BE4D1036A1B880268C3F30803A4
:1029AC005360036A02330362E0E7000010B504468B
:1029BC000268136923F44053C1680B4313618368A5
:1029CC0002691A4343691A43C3691A430168CB6805
:1029DC0023F4164323F00C031343CB6002685369B2
:1029EC0023F4407381690B4353610368314A93426A
:1029FC0006D002F58062934202D0FFF769FA01E03B
:102A0C00FFF776FAE369B3F5004F29D000210318DC
:102A1C0049411B1841F10001C90041EA5371DB0027
:102A2C00181863684FEA83024FEA937341F100016F
:102A3C00FDF7D6FB204AA2FB00314909642303FBB6
:102A4C0011031B013233A2FB03235B0903F0F002D9
:102A5C0002EB011203F00F03216813448B6010BDCD
:102A6C000023021843EB0301121841F10001C900C5
:102A7C0041EA5271D200101841F1000162689218BB
:102A8C005B41FDF7ADFB0C4AA2FB00314909642305
:102A9C0003FB1103DB003233A2FB03235B095A0057
:102AAC0002F4F87202EB011203F0070321681344DD
:102ABC008B60D4E7001001401F85EB5160B310B55B
:102ACC00044690F8413013B3242384F84130226833
:102ADC00D36823F40053D3602046FFF767FF2268C6
:102AEC00136923F4904313612268536923F02A037A
:102AFC0053612268D36843F40053D36000206064B0
:102B0C00202384F8413084F84230606310BD80F893
:102B1C004030FEF717F8D7E701207047704708B52B
:102B2C000168CA6822F04002CA60202280F8412065
:102B3C00FFF7F4FF002008BD7047704708B5806BA5
:102B4C000023C385C384FFF7F8FF08BD704790F8D6
:102B5C004230DBB2222B69D18368B3F5805F4FD052
:102B6C00826AB3F5805F04D0002B56D10369002B29
:102B7C0053D103685B681370836A01338362C38D1E
:102B8C009BB2013B9BB2C385002B51D100B583B0E6
:102B9C000268D36823F02003D3600268D36823F45F
:102BAC008073D3600268536923F0010353612023BF
:102BBC0080F8423000234363036B012B33D1002395
:102BCC000363026802F10C0353E8003F23F0100387
:102BDC000C3242E800310029F3D103681A6812F074
:102BEC00100F06D0002201921A6801925B680193C3
:102BFC00019B818DFFF7AAFF002003B05DF804FB59
:102C0C000269002AACD1826A03685B68C3F30803CB
:102C1C001380836A02338362B1E703685B6803F055
:102C2C007F031370A8E7FFF787FFE5E702207047E3
:102C3C000020704710B582B0044602681368D06853
:102C4C00516913F00F0F09D113F0200F0CD010F0B5
:102C5C00200F09D02046FFF77AFF16E011F0010192
:102C6C0015D110F4907F12D1216B012979D013F07A
:102C7C00800F03D010F0800F40F0148113F0400F40
:102C8C0003D010F0400F40F0118102B010BD13F0D2
:102C9C00010F06D010F4807F03D0626C42F0010269
:102CAC00626413F0040F04D019B1626C42F002029A
:102CBC00626413F0020F04D019B1626C42F004028A
:102CCC00626413F0080F07D010F0200F00D119B177
:102CDC00626C42F008026264626C002AD5D013F078
:102CEC00200F02D010F0200F29D123685B6903F06C
:102CFC004003626C12F0080F00D163B32046FFF75B
:102D0C00F6FD23685B6913F0400F20D0226802F1B6
:102D1C00140353E8003F23F04003143242E800311F
:102D2C000029F3D1E36B73B1624A1A65E06BFEF7CD
:102D3C006BFC0028A9D0E06B036D9847A5E72046F3
:102D4C00FFF705FFD1E72046FFF7F7FE9DE720468A
:102D5C00FFF7F3FE99E72046FFF7EFFE00236364CD
:102D6C0093E713F0100F82D010F0100F3FF47FAFE9
:102D7C00002301931368019353680193019B5369DA
:102D8C0013F0400F52D0E26B13685B689BB2002BC0
:102D9C003FF47BAFA18D99427FF677AFE385D36982
:102DAC00B3F5807F37D0226802F10C0353E8003F63
:102DBC0023F480730C3242E800310029F3D12268ED
:102DCC0002F1140353E8003F23F00103143242E8EC
:102DDC0000310029F3D1226802F1140353E8003FBB
:102DEC0023F04003143242E800310029F3D12023B0
:102DFC0084F8423000232363226802F10C0353E869
:102E0C00003F23F010030C3242E800310029F3D1CB
:102E1C00E06BFEF7AFFB02236363A18DE38D9BB2E6
:102E2C00C91A89B22046FFF791FE2EE7A18DE38DDA
:102E3C009BB2C91A89B2E38D9BB2002B3FF425AF2C
:102E4C0000293FF422AF226802F10C0353E8003F43
:102E5C0023F490730C3242E800300028F3D122683E
:102E6C0002F1140353E8003F23F00103143242E84B
:102E7C0000300028F3D1202384F842300023236350
:102E8C00226802F10C0353E8003F23F010030C32CC
:102E9C0042E800300028F3D1022363632046FFF799
:102EAC0055FEF2E62046FFF750FDEEE62046FFF712
:102EBC0036FEEAE6492B000802440346934200D151
:102ECC00704703F8011BF9E770B50D4D0D4C641BF1
:102EDC00A4100026A64209D10B4D0C4C00F07EF834
:102EEC00641BA4100026A64205D170BD55F8043B06
:102EFC0098470136EEE755F8043B98470136F2E760
:102F0C00583000085830000858300008603000086D
:102F1C0070477047024B13B1024800F005B8704778
:102F2C0000000000412F0008002301461A461846F5
:102F3C0000F014B838B5074D074C641BA4101CB92D
:102F4C00BDE8384000F050B8013C55F824309847A3
:102F5C00F5E700BF60300008643000082DE9F04749
:102F6C00DFF86CA00646DAF8000098460F4691464A
:102F7C00FFF7CEFF174B1C680CB9174C1C6065682B
:102F8C00DAF800001F2D05DDFFF7C3FF4FF0FF300F
:102F9C00BDE8F0879EB104EB85010122C1F8889051
:102FAC00D4F88831AA401343C4F88831022EC1F8F2
:102FBC00088102BFD4F88C311343C4F88C316B1CDC
:102FCC000235636044F82570FFF7A3FF0020DFE7AC
:102FDC00280000206001002064010020F8B500BF2B
:102FEC00F8BC08BC9E467047F8B500BFF8BC08BCDE
:042FFC009E46704736
:1030000000000000000000000000000000000000C0
:10301000000000000E0000000000000001000000A1
:10302000010000000000000048656C6C6F20576FC5
:10303000726C642100000000000000000102030423
:103040000000000000000000010203040607080958
:08305000CCD1FF7F010000005C
:08305800212F0008D10100083E
:04306000AD010008B6
:103064000202000000000000000000000000000058
:103074000800000000000000000000000024F4002C
:0C30840001000000100000005C010020B2
:0400000508000BD113
:00000001FF
