:020000040800F2
:1000000000000320C52200081D1E00081F1E000856
:10001000211E0008231E0008251E00080000000005
:10002000000000000000000000000000271E000883
:10003000291E0008000000002B1E00082D1E0008CD
:1000400015230008152300081523000815230008B0
:1000500015230008152300081523000815230008A0
:100060001523000815230008152300081523000890
:100070001523000815230008152300081523000880
:100080001523000815230008152300081523000870
:10009000351E000815230008152300081523000845
:1000A000451E0008551E0008651E0008751E000844
:1000B0001523000815230008152300081523000840
:1000C0001523000815230008152300081523000830
:1000D00015230008851E00081523000815230008B5
:1000E0001523000815230008152300081523000810
:1000F0001523000815230008152300081523000800
:1001000015230008152300081523000815230008EF
:100110001523000815230008951E00081523000864
:100120001523000815230008A51E00081523000844
:1001300015230008152300081523000815230008BF
:1001400015230008152300081523000815230008AF
:10015000152300081523000815230008B51E000804
:10016000152300081523000815230008152300088F
:1001700015230008152300081523000800000000BF
:10018000152300081523000815230008152300086F
:10019000152300081523000815230008152300085F
:0C01A00000000000000000001523000813
:1001AC0010B5054C237833B9044B13B10448AFF3A5
:1001BC0000800123237010BD5401002000000000BA
:1001CC00A84D000808B5034B1BB103490348AFF316
:1001DC00008008BD0000000058010020A84D000858
:1001EC004FF0FF0C1CEAD0521EBF1CEAD15392EA0E
:1001FC000C0F93EA0C0F6FD01A4480EA010C4002EA
:10020C0018BF5FEA41211ED04FF0006343EA501043
:10021C0043EA5111A0FB01310CF00040B1F5000F85
:10022C003EBF490041EAD3715B0040EA010062F134
:10023C007F02FD2A1DD8B3F1004F40EBC25008BF1E
:10024C0020F00100704790F0000F0CF0004C08BF3C
:10025C0049024CEA502040EA51207F3AC2BFD2F109
:10026C00FF0340EAC250704740F400004FF0000317
:10027C00013A5DDC12F1190FDCBF00F00040704751
:10028C00C2F10002410021FA02F1C2F1200200FA8F
:10029C0002FC5FEA310040F1000053EA4C0308BF56
:1002AC0020EADC70704792F0000F00F0004C02BFA7
:1002BC00400010F4000F013AF9D040EA0C0093F022
:1002CC00000F01F0004C02BF490011F4000F013B7C
:1002DC00F9D041EA0C018FE70CEAD15392EA0C0FEA
:1002EC0018BF93EA0C0F0AD030F0004C18BF31F055
:1002FC00004CD8D180EA010000F00040704790F02B
:10030C00000F17BF90F0004F084691F0000F91F0CE
:10031C00004F14D092EA0C0F01D142020FD193EA94
:10032C000C0F03D14B0218BF084608D180EA01001C
:10033C0000F0004040F0FE4040F40000704740F0F8
:10034C00FE4040F44000704780F0004002E000BFE7
:10035C0081F0004142001FBF5FEA410392EA030FA4
:10036C007FEA226C7FEA236C6AD04FEA1262D2EBEE
:10037C001363C1BFD218414048404140B8BF5B42F3
:10038C00192B88BF704710F0004F40F4000020F08C
:10039C007F4018BF404211F0004F41F4000121F0A2
:1003AC007F4118BF494292EA030F3FD0A2F10102EC
:1003BC0041FA03FC10EB0C00C3F1200301FA03F12A
:1003CC0000F0004302D5494260EB4000B0F5000F4D
:1003DC0013D3B0F1807F06D340084FEA310102F10C
:1003EC000102FE2A51D2B1F1004F40EBC25008BFBE
:1003FC0020F0010040EA03007047490040EB000088
:10040C00013A28BFB0F5000FEDD2B0FA80FCACF188
:10041C00080CB2EB0C0200FA0CF0AABF00EBC250B5
:10042C0052421843BCBFD0401843704792F0000FA3
:10043C0081F4000106BF80F400000132013BB5E7F6
:10044C004FEA41037FEA226C18BF7FEA236C21D06C
:10045C0092EA030F04D092F0000F08BF08467047D1
:10046C0090EA010F1CBF0020704712F07F4F04D19F
:10047C00400028BF40F00040704712F100723CBFB2
:10048C0000F50000704700F0004343F0FE4040F4DC
:10049C00000070477FEA226216BF08467FEA23639A
:1004AC000146420206BF5FEA412390EA010F40F485
:1004BC00800070474FF0000304E000BF10F00043D1
:1004CC0048BF40425FEA000C08BF704743F09643B8
:1004DC0001464FF000001CE050EA010208BF7047D3
:1004EC004FF000030AE000BF50EA010208BF70475A
:1004FC0011F0004302D5404261EB41015FEA010C6F
:10050C0002BF84460146002043F0B64308BFA3F166
:10051C008053A3F50003BCFA8CF2083AA3EBC25348
:10052C0010DB01FA02FC634400FA02FCC2F1200267
:10053C00BCF1004F20FA02F243EB020008BF20F09E
:10054C000100704702F1200201FA02FCC2F1200204
:10055C0050EA4C0021FA02F243EB020008BF20EAF9
:10056C00DC7070474FF0FF3C06E000BF4FF0010C11
:10057C0002E000BF4FF0010C4DF804CD4FEA4002F1
:10058C004FEA41037FEA226C18BF7FEA236C11D03B
:10059C0001B052EA530C18BF90EA010F58BFB2EBEE
:1005AC00030088BFC81738BF6FEAE17018BF40F06E
:1005BC00010070477FEA226C02D15FEA402C05D122
:1005CC007FEA236CE4D15FEA412CE1D05DF8040BA7
:1005DC00704700BF844608466146FFE70FB5FFF73A
:1005EC00C9FF002848BF10F1000F0FBD4DF808EDF2
:1005FC00FFF7F4FF0CBF012000205DF808FB00BFE3
:10060C004DF808EDFFF7EAFF34BF012000205DF83C
:10061C0008FB00BF4DF808EDFFF7E0FF94BF012089
:10062C0000205DF808FB00BF4DF808EDFFF7D2FF86
:10063C0094BF012000205DF808FB00BF4DF808EDC9
:10064C00FFF7C8FF34BF012000205DF808FB00BF96
:10065C004FEA4002B2F1FE4F0FD34FF09E03B3EBC3
:10066C0012620DD94FEA002343F0004310F0004F03
:10067C0023FA02F018BF404270474FF00000704759
:10068C0012F1610F01D1420205D110F0004008BFF8
:10069C006FF0004070474FF00000704742000ED2E0
:1006AC00B2F1FE4F0BD34FF09E03B3EB126209D4A1
:1006BC004FEA002343F0004323FA02F070474FF057
:1006CC000000704712F1610F01D1420202D14FF0CC
:1006DC00FF3070474FF00000704700BF53B94AB964
:1006EC00002908BF00281CBF4FF0FF314FF0FF302E
:1006FC0001F0F6B8ADF1080C6DE904CE00F006F887
:10070C00DDF804E0DDE9022304B070472DE9F04781
:10071C00089D0C46002B4ED194468C458646B2FA69
:10072C0082F262D94AB1C2F12003914020FA03F35C
:10073C000CFA02FC194300FA02FE4FEA1C471FFA9E
:10074C008CF6B1FBF7F44FEA1E4307FB141143EA96
:10075C00014304FB06F199420AD91CEB030304F193
:10076C00FF3080F01281994240F20F81023C6344C9
:10077C00591A1FFA8EF3B1FBF7F007FB101143EA7D
:10078C00014300FB06F69E420AD91CEB030300F161
:10079C00FF3180F0FC809E4240F2F98063440238C5
:1007AC009B1B40EA044000211DB1D3400022C5E947
:1007BC000032BDE8F0878B4205D90DB1C5E90001C7
:1007CC0000210846F5E7B3FA83F1002946D1A3428C
:1007DC0002D39042C0F0F080861A64EB0303012030
:1007EC00002DE6D0C5E90063E3E7002A40F09080D5
:1007FC00A1EB0C044FEA1C481FFA8CF70121B4FB47
:10080C00F8F64FEA1E4308FB164443EA044307FB81
:10081C0006F0984208D91CEB030306F1FF3402D210
:10082C00984200F2CD8026461C1A1FFA8EF3B4FBB8
:10083C00F8F008FB104443EA044300FB07F79F421F
:10084C0008D91CEB030300F1FF3402D29F4200F2E3
:10085C00B0802046DB1B40EA0640A5E7C1F120062C
:10086C008B4022FA06F71F4320FA06FC04FA01F328
:10087C0043EA0C03F44000FA01F8380C4FEA134930
:10088C00B4FBF0FE1FFA87FC00FB1E4449EA04444B
:10089C000EFB0CF9A14502FA01F20AD93C190EF132
:1008AC00FF3A80F08480A14540F28180AEF1020EC7
:1008BC003C44A4EB09041FFA83F9B4FBF0F300FBEE
:1008CC00134449EA044403FB0CFCA44507D93C1926
:1008DC0003F1FF3067D2A44565D9023B3C4443EA9F
:1008EC000E40A0FB0293A4EB0C049C42CE469C460B
:1008FC0051D34ED055B1B8EB0E0364EB0C0404FA93
:10090C0006F6CB401E43CC40C5E90064002150E7FD
:10091C00C2F1200320FA03F10CFA02FC24FA03F3CF
:10092C0094400C434FEA1C4800FA02FE1FFA8CF765
:10093C00B3FBF8F008FB1031230C43EA014300FB36
:10094C0007F1994208D91CEB030300F1FF362CD2B6
:10095C0099422AD9023863445B1AA4B2B3FBF8F16A
:10096C0008FB113344EA034401FB07F3A34208D903
:10097C001CEB040401F1FF3613D2A34211D9023946
:10098C006444E41A41EA004139E70446F0E60846BB
:10099C0006E7C845AED2B9EB020E63EB070C013883
:1009AC00A8E73146EDE7034699E73046D4E7D6464B
:1009BC007FE7634402384DE70646234608460FE7B7
:1009CC00023E634430E700BF03685A004CBF43F05B
:1009DC00004323F000431844704700BF2DE9F8434F
:1009EC0049B34F1E044615463E464FF0000909EB2D
:1009FC00060101EBD171491004EBC1084046FFF729
:100A0C00E3FF8F4203464FEAC1000FD00830AB42E0
:100A1C00204407D8FFF7D8FF0138A84208D201F1CB
:100A2C000109E4E7894506D04E1EE0E7AB42F9D850
:100A3C004046BDE8F8834FF000084046BDE8F88317
:100A4C00012807D0022807D0044B00280CBF1846F9
:100A5C000020704702487047024870471511000883
:100A6C00191100081D11000830B5214B83B0044644
:100A7C008D1E1BB301A92846AFF3008088B30199E2
:100A8C002A46FFF7ABFF014658B3FFF79DFF4B68B3
:100A9C00A064012B28D0002B01F104001FDBFFF711
:100AAC0093FF002323650368E064002B0DDBFFF745
:100ABC008BFF03460020236103B030BD0D4B0E4964
:100ACC00C91AC91018460191DAE7C3F30360FFF79E
:100ADC00B7FF034628B10020236103B030BD0123CA
:100AEC00E0E700230920E6E700230520E3E700BF49
:100AFC0000000000304E0008F84E00080368DA07CA
:100B0C0010B5044606D49B0700F1480009D500F047
:100B1C0069FC2368590709D51A070ED5DB0613D5CE
:100B2C0010BD00F057FC23685907F5D404F1D00030
:100B3C0000F060FC23681A07F0D404F5A87000F0EC
:100B4C0061FC2368DB06EBD404F5E870BDE81040CB
:100B5C0000F09CBC092070470346006800B11844A3
:100B6C00704700BF704700BF70B504460E46316C2D
:100B7C002046FFF779FF054688B9326C626123691C
:100B8C0032462146012098470828F0D0072806D184
:100B9C002846316CFFF7E6FF301D00F00FFC04F027
:100BAC000AF800BF2DE9F0470D1DD0F80C80D0F8E5
:100BBC001890074614460FCDADF5727D0DF10C0C57
:100BCC00ACE80F000FCDACE80F000FCDACE80F0078
:100BDC0095E80F0002AE4FF0000E8CE80F00C6F83F
:100BEC0000E020E0336C7B614FF4F07231467AA860
:100BFC0004F062F83B697AAA394650469847889BBC
:100C0C0073642146CDE9006905463B463A4601200E
:100C1C00C047044618BB4FF4F0727AA9304604F072
:100C2C004BF8082D19D1316C3846FFF71DFF0934EC
:100C3C005FFA84FA05460028D4D0B36B73643A4645
:100C4C00CDE900693B464AF010010120C04730B99C
:100C5C0028460DF5727DBDE8F087072D05D00925D6
:100C6C0028460DF5727DBDE8F0872046316CFFF704
:100C7C0079FF03A800F0A2FB406C7047F0B5CB6B7A
:100C8C000B6401F1040C0E460546BCE80F00F9B0EC
:100C9C0001AC0FC4BCE80F000FC4BCE80F000FC4BC
:100CAC009CE80F004FF0FF3784E80F00009706E038
:100CBC002B696A46294698470828044608D110999A
:100CCC002846FFF7D1FE0028F2D0092079B0F0BDFC
:100CDC006846FFF713FF062CF7D131462846FFF77D
:100CEC0043FF00BFC160D96B8261196400221946B1
:100CFC0058E700BF70B5C66843690B64AEB90369A9
:100D0C000A4604460D46014602209847072805D09E
:100D1C0008280FD129462046FFF726FF3046296CBC
:100D2C00FFF720FF281D00F049FB0122FFF73AFFD7
:100D3C0003F041FF03F03FFFC2681AB1CA6B0A64AB
:100D4C0000222FE79AE700BF704700BF8368014677
:100D5C000BB1012018477047012910D009D883B96D
:100D6C000F2A0ED800EB820218465368009A1360C3
:100D7C007047033901298CBF0220012070470846B7
:100D8C0070470220704700BF00B585B00A460023AB
:100D9C0003A900911946FFF7DFFF039805B05DF832
:100DAC0004FB00BF012910D009D883B90F2A0ED833
:100DBC00009900EB820209685160184670470339AC
:100DCC0001298CBF02200120704708467047022081
:100DDC00704700BF10B584B0002303AC039200949D
:100DEC000A461946FFF7DEFF04B010BD70B5D36B91
:100DFC00136402F1040C05460C46BCE80F00ADF57B
:100E0C000E7D0DF15C0EAEE80F00BCE80F00AEE8F5
:100E1C000F00BCE80F00AEE80F009CE80F004FF08D
:100E2C00FF368EE80F00169610E0FFF7D3FF214631
:100E3C0016A8A847034616AA6946082083B9049B3E
:100E4C009847052806460CD0092809D026996846EB
:100E5C00FFF70AFE03466A460C2116A8002BE4D0C5
:100E6C00092616A8FFF74AFE30460DF50E7D70BD1B
:100E7C002DE9F04F9346CA6C89B00D4652F8041B0D
:100E8C00069200F0030C002B79D00C0C8DF81D4051
:100E9C000904E4B2059102EB840202212F6D8DF856
:100EAC001C10BCF1020F08BFAA6B17F001070CD085
:100EBC0005A9584600F084FB18B9082009B0BDE814
:100ECC00F08F092009B0BDE8F08F1668002EEFD026
:100EDC0000F008010191B246029764469946B9F1B7
:100EEC00020F48D0B2F800A0568802F10408AA6C90
:100EFC0026F001030F2158469F18FFF745FF874244
:100F0C0037D82AF001023A44824294BF00220122CF
:100F1C00730003F002030AF0010A43EA0A03012BEF
:100F2C0047D0022B31D0002BCBD114B1002A40F08A
:100F3C00C98008F10402D2F800A0BAF1000FCED19A
:100F4C0005A95846029F00F03BFB0028B9D1002FA1
:100F5C00B3D00F215846FFF717FF0E210246584613
:100F6C00FFF738FF674A0F215846FFF733FF07207A
:100F7C00A8E70022CCE7566802F10808B7E7090297
:100F8C0005918DF81D30032188E7D8F8006026F014
:100F9C000043002C44D122B1019A002A5AD0002BD4
:100FAC0058D0002E01DA08F10408013308EB830253
:100FBC00C1E7ECB9CAB1D8F80430D8F80020991CB4
:100FCC004FEAD2723FF47DAF05F158010133049121
:100FDC0000F08B8008F10400FFF7BEFD04AB014666
:100FEC002846AFF30080002857D108F10802A2E789
:100FFC000D215846FFF7C8FE2B6A8342F5D1AB6A28
:10100C009845F2D14046FFF7DFFC0F2102465846C7
:10101C00FFF7E0FE2A4600215846FFF7DBFEA6E765
:10102C000D2158460393FFF7AFFE2A6A039B8242B9
:10103C00B7D1AA6A9045B4D100270422C5E90B7236
:10104C004244AB626A63D8F80020BA4255DB0122F5
:10105C000292AAE7039408F1040A002605F1580746
:10106C001C460DE050460497FFF776FD0022014622
:10107C0004AB284601360AF1040AAFF30080E0B94C
:10108C00A642EFD10D215846FFF77EFE049BC5F812
:10109C002880C5E90803062014E704460D215846AC
:1010AC00FFF772FE049E2862022C04BFEE6205F16B
:1010BC002C06C5E90968062004E72346D8F8006029
:1010CC00039C6EE74046FFF77FFC08F104020446E0
:1010DC00AA632846AFF3008000283FF4F2AE224604
:1010EC000F215846FFF776FE41E70C4658460D2176
:1010FC00FFF74AFE26462862DBE7581C08EB800007
:10110C0081E700BF000000000023B1E60123AFE639
:10111C000223ADE62DE9F0430646C3B015461C4646
:10112C00042900F2D180DFE801F0AC51CF2A030092
:10113C00002C40F0C980102A00F2C6800368DC063F
:10114C0000F1E78020AF384600F0AAF9B46B3946BD
:10115C0000234FF0010C0CFA03F22A42204603F153
:10116C00010303D050F8042B0A600446042B01F150
:10117C000401F0D1B463384600F088F999E0032CEF
:10118C0040F0A28094B204EB1243102B4FEA1245AC
:10119C0000F29A8003681F0700F1C38020AF384625
:1011AC0000F052F9B26B07EBC50154B10B46D01AE3
:1011BC0001EBC401E4001D5843F8045B8B42FAD1E7
:1011CC002244B263384600F01DF972E0012C4FEA5C
:1011DC00124895B271D0052C76D108EB0509B9F1FE
:1011EC00200F71D8B8F10F0F72D8B9F1100F036836
:1011FC0000F29F80D90708D523F00103304643F055
:10120C00020340F8483B00F0F1F820AF384600F0FC
:10121C00EDF8B36B002D00F0B9806D006A1E07EB82
:10122C00C80100250132043903EB820253F8040B88
:10123C0041F8040F9342F9D1002D00F0A1804146F2
:10124C00102938BF10216B0010396F46013B07EB9A
:10125C00C1010133043902EB830352F8040B41F84A
:10126C00040F9A42F9D1012C00F08880B8F10F0FCD
:10127C00B26302D820A800F0B5F8384600F0BAF8EE
:10128C0017E00CBB806B23461FFA82FC0124371D30
:10129C0004FA03F111EA0C0F024604D052F8041BB5
:1012AC0047F8231010460133102BF1D1AC0400D4B5
:1012BC00B063002043B0BDE8F08308EB0503102BAE
:1012CC0002D8B8F1100F14D1022043B0BDE8F0835E
:1012DC00002DEED003685A075CD46F46384600F0F8
:1012EC008DF8B26B6B00A8F11001013B07EBC1014B
:1012FC00AFE70368DA0759D420AF384600F06EF830
:10130C00B36B002D89D10433B363384600F062F817
:10131C00CFE723F01003036000F5E87000F0C0F88D
:10132C0010E723F00803036000F5A87000F08CF8B8
:10133C0034E7D90708D523F0010343F0020340F842
:10134C00483B00F053F83368580706D5304623F075
:10135C00040340F8D03B00F051F820AF384600F0C1
:10136C0045F8684600F04AF8C8F110025200B36B19
:10137C00A9F11005013A07EBC80153E720AFC2E70A
:10138C00012CC0D0B8F10F0FB36392D8384600F0DF
:10139C0029F88EE723F0040340F8D03B6F4600F0A9
:1013AC002DF8384600F02AF8B26B9BE7304623F054
:1013BC00030340F8483B00F011F89DE700F13401BD
:1013CC0091E838009C46A6464CF8045D90E8FF0F67
:1013DC00E54600BD90EC210B704700BF80EC210B63
:1013EC00704700BF90EC200B704700BF80EC200BC7
:1013FC00704700BFD0EC200B704700BFC0EC200B37
:10140C00704700BFF0EC0201F0EC0211F0EC02218D
:10141C00F0EC0231F0EC0241F0EC0251F0EC026124
:10142C00F0EC0271F0EC0281F0EC0291F0EC02A114
:10143C00F0EC02B1F0EC02C1F0EC02D1F0EC02E104
:10144C00F0EC02F1704700BFE0EC0201E0EC02119D
:10145C00E0EC0221E0EC0231E0EC0241E0EC025164
:10146C00E0EC0261E0EC0271E0EC0281E0EC029154
:10147C00E0EC02A1E0EC02B1E0EC02C1E0EC02D144
:10148C00E0EC02E1E0EC02F1704700BFB0FC01813E
:10149C00B0FC0191B0FC01A1B0FC01B1704700BFE0
:1014AC00A0FC0181A0FC0191A0FC01A1A0FC01B158
:1014BC00704700BFEC4600B52DE900502DE9FF1F29
:1014CC004FF000032DE90C0001A9FFF7D7FBDDF865
:1014DC0040E012B0704700BFEC4600B52DE900505B
:1014EC002DE9FF1F4FF000032DE90C0001A9FFF7B8
:1014FC0001FCDDF840E012B0704700BFEC4600B5CF
:10150C002DE900502DE9FF1F4FF000032DE90C00D1
:10151C0001A9FFF711FCDDF840E012B0704700BFE5
:10152C00EC4600B52DE900502DE9FF1F4FF00003EC
:10153C002DE90C0001ABFFF7D5FBDDF840E012B054
:10154C00704700BFEC4600B52DE900502DE9FF1F98
:10155C004FF000032DE90C0001AAFFF747FCDDF862
:10156C0040E012B0704700BF027A03467AB9427A63
:10157C00A2B14168013A10B44272086803220C1DF2
:10158C001A7202025C60000E10BC1A607047006890
:10159C00013A1A7202021A60000E7047B0207047AE
:1015AC0000B585B0002303AA009219460C22FFF760
:1015BC00D3FB039805B05DF804FB00BFF0E700BF58
:1015CC002DE9F043064685B00D464FF0000828463D
:1015DC00FFF7CAFFB028044600F0DA80070646D5AC
:1015EC0000F0F003802B5ED0B02B73D01BD8902B67
:1015FC0000F09B80A02B12D1C34303F007034FF4E0
:10160C007F621A41010702F47F6201D542F48042E5
:10161C00002319463046FFF77DFD0028D7D009205E
:10162C0005B0BDE8F083C02B6DD1C62800F09380C7
:10163C00C72800F0B28000F0F803C02B00F0D28075
:10164C00C82800F0DD80C928E9D12846FFF78CFFB7
:10165C00020300F00F0002F470220130024301215A
:10166C0005233046FFF756FD0028B0D0D7E783009E
:10167C00DBB21F1D0DF10C0900231946CDF80090AB
:10168C000D223046FFF768FB039BCDF800906006F7
:10169C004CBFDF1BFF1800230D2219463046039761
:1016AC00FFF780FB93E72846FFF75EFF24022043F9
:1016BC00B0F5004FB3D004010023A2B21946304656
:1016CC00FFF728FD0028AAD114F4004F18BF4FF0E3
:1016DC0001087CE7B12851D0B22800F0AD80B328C6
:1016EC006DD000F0FC03B42B99D000F0070201324E
:1016FC00012342F4002219463046FFF70BFD002867
:10170C003FF465AF8BE700F0F803D02B87D100F0E6
:10171C0007020132052342F4002201213046FFF773
:10172C00F9FC00283FF453AF79E700F00D030D2BC3
:10173C003FF475AF03AF002300F00F02194600977A
:10174C003046FFF709FB002300970D22194630465F
:10175C00FFF728FB3BE72846FFF706FF020300F0E4
:10176C000F00013002F47022032302431946304665
:10177C00FFF7D0FC00283FF42AAF50E72846FFF7CC
:10178C00F3FE431EDBB20E2B02467FF641AF46E75B
:10179C00B8F1000F40D0002042E72846FFF7E4FEE6
:1017AC00431EDBB20E2B02463FF639AF0023042159
:1017BC003046FFF7AFFC00283FF409AF2FE728466F
:1017CC00FFF7D2FE020300F00F00013002F470228A
:1017DC000123024319463046FFF79CFC00283FF4D6
:1017EC00F6AE1CE700F00F020132032342F4202274
:1017FC0019463046FFF78EFC00283FF4E8AE0EE7A2
:10180C002846FFF7B1FE00F0F00200F00F03103293
:10181C00013343EA023222E703AC434641460E222F
:10182C0000943046FFF798FA009443460F22414645
:10183C003046FFF7B7FAAEE700230DF10C090D2285
:10184C001946CDF800903046FFF786FA2846FFF788
:10185C008BFE0206039C4FF002070BD500F07F00B5
:10186C00B840044428460394FFF77EFE030607F1B4
:10187C000707F3D400FA07F204F50174224400239D
:10188C000392CDF800900D2219463046FFF78AFAE4
:10189C009DE600BF10B5C26C536884B04FF0030CCA
:1018AC0008321C0208461B0E01A9019402928DF805
:1018BC000CC08DF80D30FFF783FE04B010BD00BFD7
:1018CC0008B5FFF77BFE806C08BD00BF08B5FFF7BD
:1018DC0075FEC06CC379023300EB830008BD00BFFA
:1018EC00704700BF016042608360009BC360019B36
:1018FC00036170472DE9F84304460846D4F8188074
:10190C00C4F820801146FEF723FD0546A061E1696D
:10191C00FEF720FDE061E6683146FEF785FE00B17A
:10192C00E66106F100463146E069FEF769FE00B15A
:10193C00E6616168E069FEF753FC0646A062216827
:10194C002846FEF74DFC07466062D4F808904146E5
:10195C002846FEF7FDFC01464846FEF741FC0546CD
:10196C00E06239463046FEF7F5FC01462846FEF7A4
:10197C00F1FC606125692946FEF760FE00B16561E6
:10198C0005F1004529466069FEF73AFE00B1656134
:10199C006069BDE8F8830000012800D070474FF65D
:1019AC00FF739942FAD100B583B0084B0193084BF1
:1019BC000093084B1B68084A1268084909680848D4
:1019CC00FFF790FF03B05DF804FB00BF00007A4402
:1019DC000000FA44AC010020A8010020B001002056
:1019EC0070010020000200B2084370470268254BCA
:1019FC001B689A4200D0704770B586B00446224EE0
:101A0C003346224A002100F0BAFE002500950195CC
:101A1C0002950395049505954FF4007300930823E4
:101A2C000493F178B078FFF7DDFFFEF747FD02462F
:101A3C00174B1860174B1D605D60174B19681748E2
:101A4C00FFF758FF0546164B18601649FEF7F6FDD2
:101A5C0090B1104EFF23F37112492846FEF778FC23
:101A6C00FEF7F6FD0012B0710F4B0A4A694620468C
:101A7C0000F010FE06B070BD2846FEF70FFE054BB9
:101A8C00D871F1E7CC010020C40100200000002037
:101A9C00B4010020BC010020A40100207001002032
:101AAC00A001002000007F43B801002008B54FF6CC
:101ABC00FF710120FFF770FF08BD000008B50D484D
:101ACC000D4B03600323436000238360C3604FF41A
:101ADC00102202614FF44012426103764376837602
:101AEC00C3760377437700F063FC00B908BD00F0C0
:101AFC00C5F8FBE7CC0100200064004010B588B0AD
:101B0C000023039304930593069307930268184BE1
:101B1C009A4201D008B010BD0024019403F5EA33B9
:101B2C001A6C42F000721A641A6C02F00072019284
:101B3C00019A02941A6B42F008021A631B6B03F0B1
:101B4C0008030293029B032303930222049206933D
:101B5C000923079303A9074801F0EAFA2246214614
:101B6C00142001F059F8142001F066F8D2E700BFF8
:101B7C0000640040000C024000B583B000210191CC
:101B8C00094B1A6B42F480021A631B6B03F480033B
:101B9C000193019B0A463A2001F03EF83A2001F0ED
:101BAC004BF803B05DF804FB0038024030B58DB043
:101BBC0000240794089409940A940B9400942D4BD8
:101BCC001A6B42F040021A631A6B02F04002009248
:101BDC00009A01941A6B42F001021A631A6B02F01C
:101BEC0001020192019A02941A6B42F002021A63EA
:101BFC001A6B02F002020292029A03941A6B42F0E0
:101C0C0008021A631A6B02F008020392039A0494F6
:101C1C001A6B42F080021A631A6B02F08002049273
:101C2C00049A05941A6B42F010021A631A6B02F0B4
:101C3C0010020592059A06941A6B42F020021A6360
:101C4C001B6B03F020030693069B0B4D22464FF4AF
:101C5C008041284601F072FB4FF480430793012327
:101C6C00089309940A9407A9284601F061FA0DB06B
:101C7C0030BD00BF003802400014024072B6FEE7CF
:101C8C0000B595B03022002108A802F09BFF00237C
:101C9C00039304930593069307930193234A116CC2
:101CAC0041F080511164126C02F080520192019A41
:101CBC0002931F4B1A6842F440421A601B6803F4EB
:101CCC0040430293029B012308934FF48033099302
:101CDC0002230E934FF480020F9206221092B4222C
:101CEC00119212930423139308A801F06BFBB0B963
:101CFC0001F02AFBA8B90F230393022304930023BA
:101D0C0005934FF4A05306934FF48053079305218A
:101D1C0003A801F0A7FD30B915B05DF804FBFFF77F
:101D2C00ADFFFFF7ABFFFFF7A9FF00BF0038024084
:101D3C000070004000B595B000F00EFBFFF7A0FF5F
:101D4C00FFF734FFFFF718FF00F070F900F0C6F84A
:101D5C0000F002FAFFF7B2FE00F0DEF9184801F0CD
:101D6C001DFF184C204601F019FF0421204602F0FB
:101D7C0013FA0DF1280C144C0FCCACE80F000FCC5F
:101D8C00ACE80F0094E803008CE803000F4C0AA9A0
:101D9C00204600F0B3FB204600F04EFC022120460A
:101DAC0000F0A2FD122205A9094802F0F1FE094B30
:101DBC000DF1040C0FCBACE807008CF80030FEE7FB
:101DCC00F40100203C020020C04D0008CC01002092
:101DDC002C030020E84D000882B0002100910B4B31
:101DEC005A6C42F480425A645A6C02F4804200925B
:101DFC00009A01911A6C42F080521A641B6C03F029
:101E0C0080530193019B02B0704700BF0038024021
:101E1C00FEE7FEE7FEE7FEE7FEE770477047704718
:101E2C0008B500F0B3FA08BD08B5024800F07AFD19
:101E3C0008BD00BFCC01002008B5024801F0F8FE37
:101E4C0008BD00BF3C02002008B5024801F0F0FEBE
:101E5C0008BD00BF3C02002008B5024801F0E8FEB6
:101E6C0008BD00BF3C02002008B5024801F0E0FEAE
:101E7C0008BD00BF3C02002008B5024802F098FCE7
:101E8C0008BD00BF2C03002008B5024801F0D0FEAD
:101E9C0008BD00BFF401002008B5024801F05AF853
:101EAC0008BD00BF8402002008B5024802F080FC87
:101EBC0008BD00BFE40200200120704708B502F005
:101ECC00CFFE162303604FF0FF3008BD08B54FF06E
:101EDC00FF31FFF7F3FFFEE77047000000B583B05A
:101EEC000023009301930F480F4A026042F22732FD
:101EFC004260836042F20F72C260836101F0B4FFF2
:101F0C0050B90023009301936946064802F0FEF98C
:101F1C0028B903B05DF804FBFFF7B0FEF1E7FFF75B
:101F2C00ADFEF6E7F40100200010004010B582B0C1
:101F3C000368244A934204D0234A93422ED002B021
:101F4C0010BD00240094214B5A6C42F001025A64DB
:101F5C005B6C03F001030093009B22462146182082
:101F6C0000F05AFE182000F067FE22462146192088
:101F7C0000F052FE192000F05FFE224621461A2086
:101F8C0000F04AFE1A2000F057FE224621461B2084
:101F9C0000F042FE1B2000F04FFED0E70021019123
:101FAC000A4B1A6C42F010021A641B6C03F01003FB
:101FBC000193019B0A46362000F02EFE362000F0DD
:101FCC003BFEBCE70000014000100040003802401E
:101FDC0000B587B0002301930293039304930593F8
:101FEC0002680F4B9A4202D007B05DF804FB002345
:101FFC0000930C4B1A6B42F010021A631B6B03F02C
:10200C0010030093009B4FF400630193022302938F
:10201C000123059301A9044801F08AF8E4E700BF05
:10202C0000000140003802400010024010B596B08C
:10203C0000241294139414941594109411940994EC
:10204C000A940B940C940D940E940F942022214618
:10205C0001A802F0B7FD2E482E4B036042F2273345
:10206C004360846044F61F63C3600461446184610F
:10207C0001F0FAFE002838D14FF48053129312A9C4
:10208C00234801F0FBFF002832D1214801F018FF52
:10209C00002830D100231093119310A91C4802F092
:1020AC0035F958BB6023099300230A930B930C93C7
:1020BC000D930E930F93042209A9154801F064FFA8
:1020CC00F8B90023019302930393049305934FF4FF
:1020DC0000520692089301A90D4802F05DF998B9D7
:1020EC000B48FFF775FF16B010BDFFF7C7FDC3E730
:1020FC00FFF7C4FDC9E7FFF7C1FDCBE7FFF7BEFD56
:10210C00D0E7FFF7BBFDDCE7FFF7B8FDE8E700BF62
:10211C003C0200200000014008B50C480C4B036049
:10212C000C4B43604FF4805383600023C3604FF427
:10213C00806202610C2242618361C36102F04EFA3B
:10214C0000B908BDFFF79AFDFBE700BF2C03002088
:10215C0000100140A086010008B50B480B4B036032
:10216C004FF4E133436000238360C3604FF480621B
:10217C0002610C2242618361C36102F02FFA00B943
:10218C0008BDFFF77BFDFBE7E402002000140140D3
:10219C0030B58BB0002305930693079308930993EE
:1021AC0003683E4A934204D03D4A93424AD00BB056
:1021BC0030BD0446002501953A4B5A6C42F0100292
:1021CC005A645A6C02F010020192019A02951A6B31
:1021DC0042F002021A631B6B03F002030293029B90
:1021EC00C023059302230693032308930723099323
:1021FC0005A92D4800F09CFF2C482D4B03604FF097
:10220C00006343608560C5604FF480630361456182
:10221C0085614FF48073C3614FF4403303624562B0
:10222C0000F0A0FD58B9214BE3639C6300221146DA
:10223C00252000F0F1FC252000F0FEFCB7E7FFF7AD
:10224C001DFDF0E700240394164B5A6C42F020025B
:10225C005A645A6C02F020020392039A04941A6B8B
:10226C0042F040021A631B6B03F040030493049B7F
:10227C004FF4844305930223069303230893082306
:10228C00099305A90B4800F053FF2246214647202D
:10229C0000F0C2FC472000F0CFFC88E700100140A2
:1022AC000014014000380240000402408402002067
:1022BC004064024000180240DFF834D0FFF70CFEF7
:1022CC000C480D490D4A002302E0D458C450043385
:1022DC00C4188C42F9D30A4A0A4C002301E013605B
:1022EC000432A242FBD302F0C1FCFFF723FD70477E
:1022FC00000003200000002054010020084F0008BB
:10230C00540100204C060020FEE7000010B50446E6
:10231C000E4B1A784FF47A73B3FBF2F30C4A106835
:10232C00B0FBF3F000F08CFC68B90F2C01D9012044
:10233C000AE0002221464FF0FF3000F06DFC054B07
:10234C001C60002000E0012010BD00BF2000002018
:10235C001C0000202400002008B50B4B1A6842F426
:10236C0000721A601A6842F480621A601A6842F4A9
:10237C0080721A60032000F03DFC0F20FFF7C6FFAF
:10238C00FFF72AFD002008BD003C0240034A1168FB
:10239C00034B1B780B441360704700BF7403002081
:1023AC0020000020014B1868704700BF7403002008
:1023BC00002800F0A18038B5044690F82030D3B145
:1023CC002268136843F001031360FFF7EBFF054627
:1023DC0023685A6812F0010F10D1FFF7E3FF401B7E
:1023EC000A28F5D9636A43F400336362052384F841
:1023FC002030012038BDFFF781FBE1E71A6822F09D
:10240C0002021A60FFF7CEFF054623685A6812F0E5
:10241C00020F0DD0FFF7C6FF401B0A28F5D9636ADF
:10242C0043F400336362052384F820300120E1E794
:10243C00227E012A3DD01A6822F080021A60637E47
:10244C00012B3BD02268136823F040031360A37E5A
:10245C00012B39D02268136823F020031360E37E2C
:10246C00012B37D02268136843F010031360237FCD
:10247C00012B35D02268136823F008031360637FA7
:10248C00012B33D02268136823F004031360A36874
:10249C00E268134322691343626913436268013A89
:1024AC0021681343CB6100206062012384F8203043
:1024BC00A0E71A6842F080021A60C0E7226813682D
:1024CC0043F040031360C2E72268136843F0200313
:1024DC001360C4E72268136823F010031360C6E787
:1024EC002268136843F008031360C8E72268136876
:1024FC0043F004031360CAE70120704790F82030C2
:10250C00013BDBB2012B05D9436A43F480234362C0
:10251C000120704710B5474BD3F8002242F001025E
:10252C00C3F80022D3F8002222F47C52C3F8002214
:10253C00D3F80022486A42EA0022C3F800224A6912
:10254C0002F01F02012000FA02F2D3F81C026FEA1B
:10255C00020C20EA0200C3F81C02CB69CBB9354B44
:10256C00D3F80C020CEA0000C3F80C028C88486902
:10257C00D1F80CE044EA0E44483043F830408C6803
:10258C00088840EA04404C6904F1480E03EBCE0382
:10259C005860CB69012B1ED08B69002B35D1254897
:1025AC00D0F804320CEA0303C0F804320B699BBB6D
:1025BC002048D0F814320CEA0303C0F814320B6A2A
:1025CC00012B30D01B4AD2F8003223F00103C2F8A1
:1025DC000032002010BD174BD3F80C021043C3F887
:1025EC000C028C884869D1F800E044EA0E4448306B
:1025FC0043F8304088894C69D1F808E040EA0E4035
:10260C00483403EBC4035860C6E70A48D0F80432D8
:10261C001343C0F80432C9E70648D0F81432134308
:10262C00C0F81432CBE70349D1F81C321343C1F87C
:10263C001C32C7E70064004070B5044690F8205087
:10264C00EDB2012D06D0436A43F400234362012509
:10265C00284670BD022380F820300268136823F0EE
:10266C0001031360FFF79EFE064623685B6813F0B8
:10267C00010F0CD0FFF796FE831B0A2BF5D9636A6A
:10268C0043F400336362052384F82030E0E700252F
:10269C006562DDE730B590F820C00468A4680CF1E1
:1026AC00FF3C5FFA8CFCBCF1010F62D814F0E05FC8
:1026BC0059D0C4F3016C012404FA0CF41C608B682F
:1026CC00002B3DD10D68CB68046843EA45550CF1ED
:1026DC0018031B01E55003680C690CF1180E03EB91
:1026EC000E135C600B7D012B35D0D17993791B04D3
:1026FC0043EA0163517943EA0123147901682343C6
:10270C0001EB0C11C1F88C31D17893781B0443EA9E
:10271C000163517843EA0123117802680B4302EB01
:10272C000C12C2F8883102680CF1180C4FEA0C1C20
:10273C0052F80C3043F0010342F80C3000201DE03D
:10274C004C6843EAC403CC6823430CF118042401FD
:10275C0005682B51BFE7036803EB0E13596841F46E
:10276C0080715960C1E7436A43F40013436201204E
:10277C0004E0436A43F480234362012030BD90F8A7
:10278C0020C00CF1FF3C5FFA8CFCBCF1010F00F295
:10279C00A58030B451B90468E46814F0030F10D16B
:1027AC00436A43F40013436201207EE00468246909
:1027BC0014F0030F05D1436A43F400134362012064
:1027CC0073E0056801F11B0424012C5904F0040486
:1027DC009460002C6BD1056801F11B0424012C5969
:1027EC00640D1460046801F11B0C4FEA0C1C54F8C6
:1027FC000C4004F00204D4600468A444DCF80450D7
:10280C0015F0080F5BD008241461046801F11B0C4F
:10281C0004EB0C146468C4F307249461046804EB9F
:10282C000C146468240C5461026802EB0112D2F897
:10283C00B8211A70026802EB0112D2F8B821C2F367
:10284C0007225A70026802EB0112D2F8B821C2F3C7
:10285C0007429A70026802EB0112D2F8B821120EEC
:10286C00DA70026802EB0112D2F8BC211A7102680C
:10287C0002EB0112D2F8BC21C2F307225A71026892
:10288C0002EB0112D2F8BC21C2F307429A71026822
:10289C0002EB0112D2F8BC21120EDA71C1B9026836
:1028AC00D36843F02003D360002030BC7047056828
:1028BC0001F11B0424012C59E408546092E701F146
:1028CC001B0504EB0514646804F00F0414619CE709
:1028DC000268136943F020031361E5E7436A43F48C
:1028EC00802343620120704790F82030013BDBB21B
:1028FC00012B05D9436A43F48023436201207047BE
:10290C00026853690B43536100207047704770474E
:10291C0070477047704770477047704770477047F3
:10292C00704770472DE9F84F054603685C69D3F88A
:10293C0004809F68D3F80CB0D3F810A0D3F818908B
:10294C0014F001063BD017F0010616D001229A6054
:10295C0017F0020F08D117F0040F0CD117F008066E
:10296C0006D04FF4805608E0FFF7D0FF002604E0B5
:10297C00FFF7CFFF01E04FF4006617F4807F0DD016
:10298C002B684FF480729A6017F4007F40F08680B9
:10299C0017F4806F00F0868046F4005617F4803FE1
:1029AC000DD02B684FF480329A6017F4003F40F042
:1029BC00838017F4802F00F0838046F4004614F0D7
:1029CC00080F07D01BF0100F04D046F400762B68CC
:1029DC001022DA6014F0040F02D01BF0080F79D12A
:1029EC0014F0020F04D02B68DB6813F0030F78D1BE
:1029FC0014F0400F07D01AF0100F04D046F4806684
:102A0C002B6810221A6114F0200F02D01AF0080F54
:102A1C006BD114F0100F04D02B681B6913F0030F4B
:102A2C006AD114F4003F02D018F0100F68D114F4DE
:102A3C00803F02D018F0080F69D114F4004F7AD0FF
:102A4C0018F0040F74D014F4807F04D019F0010F27
:102A5C0001D046F0010614F4007F04D019F0020FE7
:102A6C0001D046F0020614F4806F04D019F0040F64
:102A7C0001D046F0040614F4006F59D019F0700917
:102A8C0056D0B9F1400F65D058D8B9F1200F5ED0AF
:102A9C00B9F1300F42D146F0200644E02846FFF74A
:102AAC0036FF7BE717F4006F02D046F4804675E7DB
:102ABC002846FFF72FFF71E72846FFF729FF7EE72F
:102ACC0017F4002F02D046F4803678E72846FFF73B
:102ADC0022FF74E72B680822DA602846FFF71CFFF8
:102AEC007EE72846FEF782FF82E72B6808221A61F0
:102AFC002846FFF713FF8CE72846FFF70EFF90E7F9
:102B0C002B6810225A602846FFF709FF8FE72B68C5
:102B1C0008225A602846FFF703FF8EE7B9F1100F21
:102B2C0001D146F008062A68936923F0700393617B
:102B3C002B6804225A609EB9BDE8F88FB9F1500F8A
:102B4C000BD0B9F1600FEED146F48076EBE746F08E
:102B5C001006E8E746F04006E5E746F08006E2E7B7
:102B6C006B6A33436B622846FFF7DBFEE4E7000039
:102B7C00002807DB00F01F02400901239340024AA2
:102B8C0042F82030704700BF00E100E0002808DB6D
:102B9C000901C9B200F1604000F5614080F80013F2
:102BAC00704700F00F000901C9B2014B195470476E
:102BBC0014ED00E000B500F00700C0F1070CBCF10B
:102BCC00040F28BF4FF0040C031D062B0FD9C31E96
:102BDC004FF0FF3E0EFA0CF021EA000199400EFA7C
:102BEC0003FE22EA0E0241EA02005DF804FB002318
:102BFC00EEE70000074AD36823F4E0631B041B0CC8
:102C0C00000200F4E060034343F0BF6343F400337D
:102C1C00D360704700ED00E010B50446054BD86852
:102C2C00C0F30220FFF7C6FF01462046FFF7AEFFB8
:102C3C0010BD00BF00ED00E008B5FFF799FF08BD1F
:102C4C000138B0F1807F0BD24FF0E0235861054A78
:102C5C00F02182F823100020986107221A61704736
:102C6C000120704700ED00E030B405682C6824F4B6
:102C7C0080242C60046863608368402B05D0036853
:102C8C0099600368DA6030BC704703689A60036827
:102C9C00D960F8E710B40368D9B210390B4AA2FB1B
:102CAC00014212090A4CA25CC2655F2908D923F4BF
:102CBC007F7323F0030304338365806D10BC70476E
:102CCC0023F47F7323F003038365F6E7ABAAAAAA68
:102CDC00104E0008836A826992B9012B0AD0022B2C
:102CEC0002D00BB100207047C36A13F0807F28D14B
:102CFC0000207047C36AB3F1C07F24D00020704716
:102D0C00B2F5005F09D0022B25D9032B25D1C36A5C
:102D1C0013F0807F23D100207047032B03D8DFE80A
:102D2C0003F01404140A00207047C36A13F0807F68
:102D3C000DD100207047C36AB3F1C07F09D00020C9
:102D4C007047012070470120704701207047012017
:102D5C007047012070470120704700207047012008
:102D6C007047000070B50446FFF71CFB002C5BD0CD
:102D7C000546022384F83530002384F83430226869
:102D8C00136823F00103136023681A6812F0010F13
:102D9C000AD0FFF707FB431B052BF5D920236365EE
:102DAC00032084F8350070BD1A6820491140626810
:102DBC00A0680243E0680243206902436069024351
:102DCC00A0690243E0690243206A02430A43616A34
:102DDC0004291ED01A602668756925F00705636AF8
:102DEC001D43042B07D1A36A1D43E36A1BB1204684
:102DFC00FFF770FF90B975612046FFF74BFFE26D4E
:102E0C003F239340836000206065012384F83530B4
:102E1C00C9E7E16A206B01430A43DBE740236365A2
:102E2C00012084F83500BEE70120BCE73F8010F09C
:102E3C0038B50446856D90F8340001282BD001205C
:102E4C0084F8340094F83500C0B2012804D0002373
:102E5C0084F83430022038BD022084F8350000207C
:102E6C0060652046FFF700FFE26D3F239340AB60A7
:102E7C002268136843F016031360236C23B1226895
:102E8C00136843F0080313602268136843F00103CE
:102E9C0013600020DFE70220DDE770B50446866D85
:102EAC00FFF780FA94F83530DBB2022B06D0802382
:102EBC006365002384F83430012070BD0546226818
:102ECC00136823F0160313602268536923F0800300
:102EDC005361236CE3B12268136823F00803136079
:102EEC002268136823F00103136023681B6813F036
:102EFC00010F11D0FFF756FA431B052BF5D92023F0
:102F0C006365032084F83500002384F83430D4E75B
:102F1C00A36C002BDFD1E3E7E26D3F239340B3605A
:102F2C00012384F83530002084F83400C5E790F88C
:102F3C003530DBB2022B03D0802343650120704770
:102F4C00052380F835300268136823F00103136001
:102F5C0000207047F0B583B0044600230193724BF8
:102F6C001D68724BA3FB0535AD0A876D3E68C26DBB
:102F7C0008239340334210D003681A6812F0040FF0
:102F8C000BD01A6822F004021A60C26D0823934019
:102F9C00BB60436D43F001034365E26D0123934035
:102FAC00334209D02268526912F0800F04D0BB6002
:102FBC00636D43F002036365E26D04239340334277
:102FCC0009D02268126812F0020F04D0BB60636D46
:102FDC0043F004036365E26D10239340334224D025
:102FEC002268126812F0080F1FD0BB6023681A68A1
:102FFC0012F4802F0DD01B6813F4002F04D1236C16
:10300C009BB12046984710E0A36C73B120469847BB
:10301C000BE01A6812F4807F03D11A6822F00802C0
:10302C001A60236C0BB120469847E26D2023934025
:10303C00334255D02268126812F0100F50D0BB608A
:10304C0094F83530DBB2052B0ED023681A6812F4D5
:10305C00802F33D01B6813F4002F2AD1636C002B04
:10306C003ED0204698473BE02268136823F01603B5
:10307C0013602268536923F080035361236CA3B15E
:10308C002268136823F008031360E26D3F2393401A
:10309C00BB60012384F83530002384F83430236D71
:1030AC00002B3FD0204698473CE0A36C002BE7D187
:1030BC00EBE7E36BA3B12046984711E01A6812F4D2
:1030CC00807F09D11A6822F010021A60012384F85B
:1030DC003530002384F83430E36B0BB1204698472D
:1030EC00636DFBB1636D13F0010F17D0052384F8EA
:1030FC0035302268136823F001031360019B013300
:10310C000193AB4204D823681B6813F0010FF5D16F
:10311C00012384F83530002384F83430E36C0BB190
:10312C002046984703B0F0BD1C000020B5814E1B13
:10313C0000230F2B00F2F98030B583B069E085686D
:10314C004FEA430E032404FA0EF425EA0405CC6876
:10315C0004FA0EF42C438460446824EA02044A689E
:10316C00C2F300129A402243426060E0DC0808344B
:10317C0050F8242003F00705AD004FF00F0E0EFAA7
:10318C0005FE22EA0E0E0A69AA4042EA0E0240F837
:10319C00242060E0092200E0002202FA0EF22A4309
:1031AC000234624D45F82420614A94686FEA0C029F
:1031BC0024EA0C05D1F804E01EF4801F01D04CEA7F
:1031CC0004055B4CA560E46802EA0405D1F804E050
:1031DC001EF4001F01D04CEA0405554CE5606468F0
:1031EC0002EA0405D1F804E01EF4003F01D04CEAD9
:1031FC0004054F4C6560246822404D6815F4803FEF
:10320C0001D04CEA04024A4C226001330F2B00F22D
:10321C008A8001229A400C6804EA020C32EA040407
:10322C00F3D14C6804F00304013C012C87D94A68A3
:10323C0002F00302032A09D0C4685D000322AA40ED
:10324C0024EA02048A68AA402243C2604A6802F057
:10325C000302022A8AD004684FEA430E032202FAC0
:10326C000EF224EA02044A6802F0030202FA0EF299
:10327C00224302604A6812F4403FC6D000220192F9
:10328C002C4A546C44F480445464526C02F48042D2
:10329C000192019A9C08A51C244A52F8255003F06F
:1032AC00030E4FEA8E0E0F2202FA0EF225EA0205E9
:1032BC00214A90423FF470AF02F58062904222D0D6
:1032CC0002F58062904220D002F5806290421ED0BE
:1032DC0002F5806290421CD002F5806290421AD0B6
:1032EC0002F58062904218D002F58062904216D0AE
:1032FC0002F58062904214D002F5806290423FF455
:10330C0049AF0A2249E7012247E7022245E7032297
:10331C0043E7042241E705223FE706223DE7072267
:10332C003BE7082239E703B030BD70470038014055
:10333C00003C014000380240000002400AB18161AB
:10334C00704709048161704710B582B00023019366
:10335C00194B1A6C42F080521A641B6C03F08053A8
:10336C000193019B154B01221A64FFF71BF80446CD
:10337C00134B5B6813F4803F08D1FFF713F8001B65
:10338C00B0F57A7FF4D9032002B010BD0B4B0122AB
:10339C005A64FFF707F80446094B5B6813F4003FC7
:1033AC0007D1FEF7FFFF001BB0F57A7FF4D903209D
:1033BC00EAE70020E8E700BF0038024000000E42B8
:1033CC0000700040002800F0E08170B582B0044627
:1033DC00036813F0010F3BD09F4B9B6803F00C0369
:1033EC00042B2CD09C4B9B6803F00C03082B21D096
:1033FC006368B3F5803F4FD0B3F5A02F52D0964BF6
:10340C001A6822F480321A601A6822F480221A6038
:10341C006368002B50D0FEF7C5FF05468E4B1B682A
:10342C0013F4003F14D1FEF7BDFF401B6428F5D9FF
:10343C000320B1E1884B5B6813F4800FD8D0864B26
:10344C001B6813F4003F03D06368002B00F09F81CE
:10345C00236813F0020F54D07F4B9B6813F00C0FB2
:10346C003ED07D4B9B6803F00C03082B33D0E368F4
:10347C00002B68D0794B01221A60FEF793FF0546AA
:10348C00754B1B6813F0020F54D1FEF78BFF401BDA
:10349C000228F5D903207FE16F4A136843F4803387
:1034AC001360B5E76C4B1A6842F480221A601A68F4
:1034BC0042F480321A60ABE7FEF774FF0546664BA8
:1034CC001B6813F4003FC3D0FEF76CFF401B64284D
:1034DC00F5D9032060E1604B5B6813F4800FC6D113
:1034EC005D4B1B6813F0020F03D0E368012B40F017
:1034FC005081594A136823F0F803216943EAC10348
:10350C001360236813F0080F42D063696BB3534BFD
:10351C000122C3F8802EFEF745FF05464E4B5B6F2C
:10352C0013F0020F34D1FEF73DFF401B0228F5D9F2
:10353C00032031E1484A136823F0F803216943EA78
:10354C00C1031360DDE7454B00221A60FEF72AFF2A
:10355C000546414B1B6813F0020FD2D0FEF722FF39
:10356C00401B0228F5D9032016E13C4B0022C3F87E
:10357C00802EFEF717FF0546374B5B6F13F0020FDB
:10358C0006D0FEF70FFF401B0228F5D9032003E1FC
:10359C00236813F0040F77D02F4B1B6C13F0805F54
:1035AC0033D1002301932C4B1A6C42F080521A64D5
:1035BC001B6C03F080530193019B0125284B1B6866
:1035CC0013F4807F23D0A368012B34D0052B38D083
:1035DC00214B1A6F22F001021A671A6F22F00402B3
:1035EC001A67A368002B3DD0FEF7DCFE06461A4B8B
:1035FC001B6F13F0020F46D1FEF7D4FE801B41F275
:10360C0088339842F3D90320C6E00025D6E7144A44
:10361C00136843F480731360FEF7C4FE0646104B28
:10362C001B6813F4807FCED1FEF7BCFE801B0228F2
:10363C00F5D90320B0E0084A136F43F00103136778
:10364C00CFE7054B1A6F42F004021A671A6F42F06B
:10365C0001021A67C5E700BF00380240000047426C
:10366C0000700040FEF79EFE0646524B1B6F13F097
:10367C00020F08D0FEF796FE801B41F28833984269
:10368C00F3D9032088E0EDB9A369002B00F0838007
:10369C00484A926802F00C02082A51D0022B17D02B
:1036AC00454B00221A66FEF77DFE0446414B1B6813
:1036BC0013F0007F42D0FEF775FE001B0228F5D9EF
:1036CC00032069E03B4A136C23F080531364DBE75F
:1036DC00394B00221A66FEF765FE0546354B1B6812
:1036EC0013F0007F06D0FEF75DFE401B0228F5D9D3
:1036FC00032051E0E369226A1343626A43EA8213AE
:10370C00A26A5208013A43EA0243E26A43EA0263BC
:10371C00284A5360284B01221A66FEF743FE0446E2
:10372C00244B1B6813F0007F06D1FEF73BFE001BF9
:10373C000228F5D903202FE000202DE000202BE0FB
:10374C00012B2BD01B4B5B6803F48001E269914287
:10375C0026D103F03F02216A8A4223D1616A47F6DF
:10376C00C0721A40B2EB811F1ED103F44031A26A21
:10377C005208013AB1EB024F18D103F07063E26AC0
:10378C00B3EB026F14D1002006E00120704701203A
:10379C0002E0012000E0002002B070BD0120FBE738
:1037AC000120F9E70120F7E70120F5E70120F3E715
:1037BC000120F1E7003802400000474208B5264BD3
:1037CC009B6803F00C03042B41D0082B41D1224BF6
:1037DC005A6802F03F025B6813F4800F12D01E4B44
:1037EC005968C1F388111D480023A1FB0001FCF7A7
:1037FC0075FF194B5B68C3F3014301335B00B0FBEE
:10380C00F3F027E0144B5868C0F388104FEA401CC3
:10381C00BCEB000C6EEB0E0E4FEA8E1343EA9C636E
:10382C004FEA8C11B1EB0C0163EB0E03DB0043EAA6
:10383C005173C90011EB000C43F1000399020023F2
:10384C004FEA8C2041EA9C51FCF748FFD1E7034832
:10385C0000E0034808BD00BF00380240001BB70061
:10386C000024F400002800F09B8070B50D4604463F
:10387C004F4B1B6803F00F038B4208D2CBB24C4A60
:10388C001370136803F00F038B4240F08B80236896
:10389C0013F0020F17D013F0040F04D0454A9368AD
:1038AC0043F4E0539360236813F0080F04D0414AAB
:1038BC00936843F4604393603E4A936823F0F003AB
:1038CC00A1680B439360236813F0010F32D0636837
:1038DC00012B21D09A1E012A25D9364A126812F0E2
:1038EC00020F61D033498A6822F0030213438B60C4
:1038FC00FEF758FD06462F4B9B6803F00C036268DD
:10390C00B3EB820F16D0FEF74DFD801B41F28833CE
:10391C009842F0D9032042E0264A126812F4003F84
:10392C00E0D101203BE0234A126812F0007FD9D18C
:10393C00012034E01E4B1B6803F00F03AB4207D988
:10394C00EAB21B4B1A701B6803F00F03AB422DD16C
:10395C00236813F0040F06D0164A936823F4E0533F
:10396C00E1680B439360236813F0080F07D0114AEA
:10397C00936823F46043216943EAC1039360FFF722
:10398C001DFF0C4B9B68C3F303130B4AD35CD8404D
:10399C000A4B18600A4B1868FEF7B8FC002070BD83
:1039AC00012070470120FAE70120F8E70120F6E733
:1039BC00003C024000380240004E00081C00002071
:1039CC0024000020014B1868704700BF1C00002029
:1039DC0008B5FFF7F7FF044B9B68C3F38223034A38
:1039EC00D35CD84008BD00BF00380240F84D000839
:1039FC0008B5FFF7E7FF044B9B68C3F34233034A58
:103A0C00D35CD84008BD00BF00380240F84D000818
:103A1C0030B4036A026A22F00102026242688469CD
:103A2C0024F0730C0C6844EA0C0423F0020C8B6831
:103A3C0043EA0C03114DA84203D005F58065A8425A
:103A4C0005D123F00803CD682B4323F004030B4D61
:103A5C00A84203D005F58065A84207D122F4407234
:103A6C004D6945EA020C8A6942EA0C0242608461A3
:103A7C004A684263036230BC704700BF00000140DB
:103A8C0030B4036A026A22F4807202624268C4692A
:103A9C0024F0730C0C6844EA0C0523F400738C6856
:103AAC0043EA0423114CA04203D004F58064A042E5
:103ABC0006D123F40063CC6843EA042323F4806327
:103ACC000A4CA04203D004F58064A04207D122F432
:103ADC0040524C6942EA04128C6942EA0412426078
:103AEC00C5614A68C263036230BC70470000014084
:103AFC0030B4036A026A22F4805202624468C269DA
:103B0C0022F4E6420D6842EA052223F400538D6844
:103B1C0043EA0533094DA84203D005F58065A84258
:103B2C0004D124F480444D6944EA85144460C26194
:103B3C004A680264036230BC704700BF0000014059
:103B4C0010B4036A046A24F001040462846924F04A
:103B5C00F00C4CEA021223F00A030B43826103625D
:103B6C0010BC704710B4036A046A24F01004046299
:103B7C00846924F4704C4CEA023223F0A00343EA2B
:103B8C0001138261036210BC7047836823F07003D9
:103B9C000B4343F0070383607047000090F83D30FF
:103BAC00DBB2012B37D1022380F83D300268D36899
:103BBC0043F00103D3600368194A934220D0B3F158
:103BCC00804F1DD0A2F57C42934219D002F5806241
:103BDC00934215D002F58062934211D002F57842DF
:103BEC0093420DD002F57052934209D0A2F5943253
:103BFC00934205D01A6842F001021A600020704707
:103C0C009A6802F00702062A07D01A6842F00102ED
:103C1C001A6000207047012070470020704700BFD9
:103C2C0000000140704770477047704770477047FD
:103C3C0070B504460368DE681D6915F0020F10D0DC
:103C4C0016F0020F0DD06FF002021A6101230377F8
:103C5C0003689B6913F0030F5ED0FFF7E6FF0023A8
:103C6C00237715F0040F12D016F0040F0FD0236831
:103C7C006FF004021A610223237723689B6913F403
:103C8C00407F4FD02046FFF7D0FF0023237715F05D
:103C9C00080F12D016F0080F0FD023686FF008022F
:103CAC001A61042323772368DB6913F0030F40D0D8
:103CBC002046FFF7BAFF0023237715F0100F12D020
:103CCC0016F0100F0FD023686FF010021A61082342
:103CDC0023772368DB6913F4407F31D02046FFF74C
:103CEC00A4FF0023237715F0010F02D016F0010F6B
:103CFC002DD115F0800F02D016F0800F2FD115F0BA
:103D0C00400F02D016F0400F31D115F0200F02D029
:103D1C0016F0200F33D170BDFFF786FF2046FFF75A
:103D2C0085FF9CE72046FFF77FFF2046FFF77EFFCD
:103D3C00ABE72046FFF778FF2046FFF777FFBAE79F
:103D4C002046FFF771FF2046FFF770FFC9E7236895
:103D5C006FF001021A612046FFF765FFC9E723687F
:103D6C006FF080021A61204600F040FBC7E7236821
:103D7C006FF040021A612046FFF759FFC5E7236830
:103D8C006FF020021A61204600F02FFBC3E7000001
:103D9C000368344A904212D0B0F1804F0FD0A2F594
:103DAC007C4290420BD002F58062904207D002F523
:103DBC008062904203D002F57842904203D123F006
:103DCC0070034A681343274A90422AD0B0F1804FBF
:103DDC0027D0A2F57C42904223D002F5806290421B
:103DEC001FD002F5806290421BD002F578429042BF
:103DFC0017D002F57052904213D002F580629042B7
:103E0C000FD002F5806290420BD0A2F5983290420E
:103E1C0007D002F58062904203D002F58062904296
:103E2C0003D123F44073CA68134323F080034A6917
:103E3C00134303608B68C3620B688362094B98421F
:103E4C0003D003F58063984201D10B69036301230E
:103E5C004361036913F0010F03D0036923F00103DD
:103E6C00036170470000014040B310B5044690F860
:103E7C003D30F3B1022384F83D30214651F8040B58
:103E8C00FFF786FF012384F8463084F83E3084F82F
:103E9C003F3084F8403084F8413084F8423084F864
:103EAC00433084F8443084F8453084F83D300020A9
:103EBC0010BD80F83C30FEF739F8DBE70120704785
:103ECC0040B310B5044690F83D30F3B1022384F8AA
:103EDC003D30214651F8040BFFF75AFF012384F8BB
:103EEC00463084F83E3084F83F3084F8403084F813
:103EFC00413084F8423084F8433084F8443084F8FC
:103F0C00453084F83D30002010BD80F83C30FFF780
:103F1C0089FEDBE70120704730B4036A026A22F0A5
:103F2C00100202624468826922F4E6420D6842EA99
:103F3C00052223F020038D6843EA0513114DA84296
:103F4C0003D005F58065A84206D123F08003CD6827
:103F5C0043EA051323F040030A4DA84203D005F5AC
:103F6C008065A84207D124F440644D6944EA850475
:103F7C008D6944EA8504446082614A688263036205
:103F8C0030BC70470000014038B590F83C30012B34
:103F9C0066D004460D46012380F83C300C2A5AD8D2
:103FAC00DFE802F0075959591B59595930595959D9
:103FBC0044000068FFF72CFD2268936943F0080366
:103FCC0093612268936923F00403936122689369D7
:103FDC0029690B43936100203EE00068FFF79CFFCA
:103FEC002268936943F4006393612268936923F414
:103FFC008063936122689369296943EA0123936181
:10400C00002029E00068FFF73BFD2268D36943F0EC
:10401C000803D3612268D36923F00403D3612268B7
:10402C00D36929690B43D361002015E00068FFF7C1
:10403C005FFD2268D36943F40063D3612268D369BE
:10404C0023F48063D3612268D369296943EA01238D
:10405C00D361002000E00120002384F83C3038BDFF
:10406C000220FCE710B4846824F47F4C42EA03225B
:10407C000A4342EA0C02826010BC704790F83C3054
:10408C00012B78D010B50446012380F83C30022374
:10409C0080F83D300268936823F47F4323F0770364
:1040AC0093600B68602B4CD029D8402B54D00CD982
:1040BC00502B22D1CA6849680068FFF741FD502196
:1040CC002068FFF762FD002005E0202B0DD009D9F8
:1040DC00302B0AD00120012384F83D30002384F8D2
:1040EC003C3010BD0BB1102B05D119462068FFF7E1
:1040FC004CFD0020EFE70120EDE70120EBE7B3F5E5
:10410C00805F34D0B3F5005F0CD1CB684A68896806
:10411C000068FFF7A7FF2268936843F4804393601D
:10412C000020D8E7702B24D1CB684A6889680068D6
:10413C00FFF798FF2268936843F0770393600020A1
:10414C00C9E7CA6849680068FFF70CFD6021206860
:10415C00FFF71BFD0020BEE7CA6849680068FFF73F
:10416C00EFFC40212068FFF710FD0020B3E7002092
:10417C00B1E70120AFE70220704701F01F014FF0BB
:10418C00010C0CFA01FC036A23EA0C030362036AB8
:10419C008A4013430362704710B504460846002951
:1041AC0048D194F83E30DBB2013B18BF0123002B01
:1041BC0040F0A380002856D1022384F83E302268B8
:1041CC00D36843F00203D360012201462068FFF755
:1041DC00D4FF23684C4A934203D002F58062934289
:1041EC0003D15A6C42F400425A642368464A934203
:1041FC0078D0B3F1804F75D0A2F57C42934271D048
:10420C0002F5806293426DD002F58062934269D0D0
:10421C0002F57842934265D002F57052934261D018
:10422C00A2F5943293425DD01A6842F001021A60F2
:10423C00002061E0042908D008290DD094F8413001
:10424C00DBB2013B18BF0123B1E794F83F30DBB27E
:10425C00013B18BF0123AAE794F84030DBB2013BC5
:10426C0018BF0123A3E7042824D008282BD002234D
:10427C0084F841300C2842D801A353F820F000BF39
:10428C00CB4100080B4300080B4300080B4300080C
:10429C00C74200080B4300080B4300080B430008FF
:1042AC00D94200080B4300080B4300080B430008DD
:1042BC00E5420008022384F83F302268D36843F0BB
:1042CC000403D36080E7022384F840302268D3686B
:1042DC0043F00803D36077E72268D36843F01003F8
:1042EC00D36071E79A6802F00702062A09D01A68AF
:1042FC0042F001021A60002010BD0120FCE70120F1
:10430C00FAE70020F8E700BF0000014090F83C20DD
:10431C00012A3CD010B40346012280F83C20022232
:10432C0080F83D2002685068946820F0700C086892
:10433C0040EA0C0050601A68164882421AD0B2F15A
:10434C00804F17D0A0F57C40824213D000F58060DE
:10435C0082420FD000F5806082420BD000F578408D
:10436C00824207D000F57050824203D0A0F5943001
:10437C00824204D124F080044968214391600122D7
:10438C0083F83D20002083F83C0010BC70470220CD
:10439C00704700BF00000140024690F83C30012BF2
:1043AC0021D0012380F83C30CB6823F4407388681B
:1043BC00034323F480634868034323F400630868D1
:1043CC00034323F480530869034323F400534869DF
:1043DC00034323F48043C9690B4311684B640020E9
:1043EC0082F83C00704702207047704770470268A3
:1043FC0002F10C0353E8003F23F0C0030C3242E8F7
:10440C0000310029F3D1202380F841307047026835
:10441C0002F10C0353E8003F23F490730C3242E892
:10442C0000310029F3D1026802F1140353E8003F74
:10443C0023F00103143242E800310029F3D1036B5D
:10444C00012B05D0202380F84230002303637047F2
:10445C00026802F10C0353E8003F23F010030C3206
:10446C0042E800310029F3D1ECE790F84130DBB29F
:10447C00212B01D0022070478368B3F5805F17D0E1
:10448C00036A5A1C02621A7803685A60C38C9BB286
:10449C00013B9BB2C3844BB90268D36823F0800301
:1044AC00D3600268D36843F04003D36000207047A8
:1044BC000369002BE4D1036A1B880268C3F3080369
:1044CC005360036A02330362E0E7000010B5044650
:1044DC000268136923F44053C1680B43136183686A
:1044EC0002691A4343691A43C3691A430168CB68CA
:1044FC0023F4164323F00C031343CB600268536977
:10450C0023F4407381690B4353610368314A93422E
:10451C0006D002F58062934202D0FFF759FA01E00F
:10452C00FFF766FAE369B3F5004F29D000210318B1
:10453C0049411B1841F10001C90041EA5371DB00EC
:10454C00181863684FEA83024FEA937341F1000134
:10455C00FCF7C4F8204AA2FB00314909642303FB91
:10456C0011031B013233A2FB03235B0903F0F0029E
:10457C0002EB011203F00F03216813448B6010BD92
:10458C000023021843EB0301121841F10001C9008A
:10459C0041EA5271D200101841F100016268921880
:1045AC005B41FCF79BF80C4AA2FB003149096423E0
:1045BC0003FB1103DB003233A2FB03235B095A001C
:1045CC0002F4F87202EB011203F0070321681344A2
:1045DC008B60D4E7001001401F85EB5160B310B520
:1045EC00044690F8413013B3242384F841302268F8
:1045FC00D36823F40053D3602046FFF767FF22688B
:10460C00136923F4904313612268536923F02A033E
:10461C0053612268D36843F40053D3600020606474
:10462C00202384F8413084F84230606310BD80F858
:10463C004030FDF7ADFDD7E701207047704708B556
:10464C000168CA6822F04002CA60202280F841202A
:10465C00FFF7F4FF002008BD70477047704710B596
:10466C00846B23685A6994F84130DBB2212B10D04B
:10467C0023685A6902F0400294F84230DBB2222BD4
:10468C0011D0636C43F0100363642046FFF7E6FF20
:10469C0010BD02F08002002AEAD00023E3842046F9
:1046AC00FFF7A5FEE4E7002AEBD00023E3852046C4
:1046BC00FFF7ADFEE5E708B5806B0023C385C38427
:1046CC00FFF7CCFF08BD704790F84230DBB2222BCD
:1046DC0069D18368B3F5805F4FD0826AB3F5805F90
:1046EC0004D0002B56D10369002B53D103685B68AF
:1046FC001370836A01338362C38D9BB2013B9BB2FF
:10470C00C385002B51D100B583B00268D36823F068
:10471C002003D3600268D36823F48073D3600268EB
:10472C00536923F001035361202380F842300023A6
:10473C004363036B012B33D100230363026802F143
:10474C000C0353E8003F23F010030C3242E8003115
:10475C000029F3D103681A6812F0100F06D000225A
:10476C0001921A6801925B680193019B818DFFF79E
:10477C00AAFF002003B05DF804FB0269002AACD14B
:10478C00826A03685B68C3F308031380836A02338D
:10479C008362B1E703685B6803F07F031370A8E7DB
:1047AC00FFF75AFFE5E70220704700207047000032
:1047BC0010B582B0044602681368D068516913F0D2
:1047CC000F0F09D113F0200F0CD010F0200F09D0CF
:1047DC002046FFF779FF16E011F0010115D110F416
:1047EC00907F12D1216B012979D013F0800F03D067
:1047FC0010F0800F40F0148113F0400F03D010F034
:10480C00400F40F0118102B010BD13F0010F06D023
:10481C0010F4807F03D0626C42F00102626413F0EA
:10482C00040F04D019B1626C42F00202626413F0FE
:10483C00020F04D019B1626C42F00402626413F0EE
:10484C00080F07D010F0200F00D119B1626C42F0A4
:10485C0008026264626C002AD5D013F0200F02D0DB
:10486C0010F0200F29D123685B6903F04003626CC0
:10487C0012F0080F00D163B32046FFF7C8FD236880
:10488C005B6913F0400F20D0226802F1140353E847
:10489C00003F23F04003143242E800310029F3D1E9
:1048AC00E36B73B1624A1A65E06BFEF740FB0028BC
:1048BC00A9D0E06B036D9847A5E72046FFF704FFEE
:1048CC00D1E72046FFF7CAFE9DE72046FFF7C6FE5C
:1048DC0099E72046FFF7C2FE0023636493E713F0C9
:1048EC00100F82D010F0100F3FF47FAF0023019314
:1048FC001368019353680193019B536913F0400FA4
:10490C0052D0E26B13685B689BB2002B3FF47BAF19
:10491C00A18D99427FF677AFE385D369B3F5807F9C
:10492C0037D0226802F10C0353E8003F23F4807364
:10493C000C3242E800310029F3D1226802F1140351
:10494C0053E8003F23F00103143242E80031002900
:10495C00F3D1226802F1140353E8003F23F0400323
:10496C00143242E800310029F3D1202384F842307C
:10497C0000232363226802F10C0353E8003F23F069
:10498C0010030C3242E800310029F3D1E06BFEF742
:10499C0084FA02236363A18DE38D9BB2C91A89B299
:1049AC002046FFF790FE2EE7A18DE38D9BB2C91A2E
:1049BC0089B2E38D9BB2002B3FF425AF00293FF465
:1049CC0022AF226802F10C0353E8003F23F49073EA
:1049DC000C3242E800300028F3D1226802F11403B3
:1049EC0053E8003F23F00103143242E80030002862
:1049FC00F3D1202384F8423000232363226802F190
:104A0C000C0353E8003F23F010030C3242E8003053
:104A1C000028F3D1022363632046FFF754FEF2E62D
:104A2C002046FFF722FDEEE62046FFF708FEEAE6F9
:104A3C00C346000808B5806B01234363036B012B4D
:104A4C0002D0FFF70AFE08BD818D4908FFF73BFE37
:104A5C00F9E708B50346806B1B681B6813F4807F6D
:104A6C002BD10023C385026802F10C0353E8003FED
:104A7C0023F480730C3242E800310029F3D1026830
:104A8C0002F1140353E8003F23F00103143242E80F
:104A9C0000310029F3D1026802F1140353E8003FFE
:104AAC0023F04003143242E800310029F3D12023D3
:104ABC0080F84230036B012B07D000234363036B58
:104ACC00012B0FD0FFF7C8FD08BD026802F10C03E3
:104ADC0053E8003F23F010030C3242E80031002968
:104AEC00F3D1EAE7818DFFF7EEFDEDE730B583B04A
:104AFC00044613468162828500254564222280F893
:104B0C004220C26B1F48D063E26B1F481064E26BFB
:104B1C001E48D064E26B156520680A46011DE06BE7
:104B2C00FEF786F9019523681A6801925B68019378
:104B3C00019B23695BB1226802F10C0353E8003F2F
:104B4C0043F480730C3242E800310029F3D122681F
:104B5C0002F1140353E8003F43F00103143242E81E
:104B6C0000310029F3D1226802F1140353E8003F0D
:104B7C0043F04003143242E800310029F3D1002005
:104B8C0003B030BD5F4A0008414A00086B4600087C
:104B9C0008B590F84230DBB2202B08D149B10AB9E4
:104BAC00012008BD00230363FFF7A0FFF9E70220F3
:104BBC00F7E70120F5E708B5062000F035F80120ED
:104BCC00FDF784F902440346934200D1704703F881
:104BDC00011BF9E71F2938B505460C4604D91623E5
:104BEC0003604FF0FF3038BDD0F8182112B152F8E5
:104BFC0021304BB9284600F031F8224601462846B0
:104C0C00BDE8384000F018B8012B0AD0591C03D16C
:104C1C00162303600120E6E7002142F82410204609
:104C2C0098470020DFE70000024B01461868FFF7A9
:104C3C00D1BF00BF2800002038B5074D0023044623
:104C4C00084611462B60FDF739F9431C02D12B683D
:104C5C0003B1236038BD00BFB0040020FDF72CB9B0
:104C6C00014B1868704700BF2800002070B50D4D2F
:104C7C000D4C641BA4100026A64209D10B4D0C4C04
:104C8C0000F08CF8641BA4100026A64205D170BD60
:104C9C0055F8043B98470136EEE755F8043B984726
:104CAC000136F2E7F84E0008F84E0008F84E0008FE
:104CBC00044F0008704770470A44914200F1FF33DB
:104CCC0000D1704710B511F8014B03F8014F914218
:104CDC00F9D110BD024B13B1024800F005B8704772
:104CEC0000000000014D0008002301461A4618463A
:104CFC0000F014B838B5074D074C641BA4101CB950
:104D0C00BDE8384000F050B8013C55F824309847C5
:104D1C00F5E700BF044F0008084F00082DE9F047E5
:104D2C00DFF86CA00646DAF8000098460F4691466C
:104D3C00FFF7C0FF174B1C680CB9174C1C6065685B
:104D4C00DAF800001F2D05DDFFF7B5FF4FF0FF303F
:104D5C00BDE8F0879EB104EB85010122C1F8889073
:104D6C00D4F88831AA401343C4F88831022EC1F814
:104D7C00088102BFD4F88C311343C4F88C316B1CFE
:104D8C000235636044F82570FFF795FF0020DFE7DC
:104D9C0050010020B8040020BC040020F8B500BF6E
:104DAC00F8BC08BC9E467047F8B500BFF8BC08BC00
:044DBC009E46704758
:104DC00000000000000000000000000000000000E3
:104DD000000000000E0000000000000001000000C4
:104DE000010000000000000048656C6C6F20576FE8
:104DF000726C642100000000000000000102030446
:104E0000000000000000000001020304060708097A
:084E1000000610160006101642
:104E180008B10181B0B000840000000008B1018130
:084E2800B0B00084000000009E
:104E3000E8B8FF7F010000003CBCFF7FB0A9028002
:104E4000C8BCFF7FB0B0A88018BDFF7F0100000084
:104E500024BDFF7FB0B0AA8058BDFF7FAE71B28085
:104E600024BEFF7F0100000020BEFF7FAB3F3880E3
:104E700080BEFF7F0100000088BEFF7FB0B0AA8027
:104E8000C4BEFF7F0100000070BFFF7FAA0DB2808B
:104E9000ECBFFF7FB0AF08807CC2FF7F0100000045
:104EA00080C2FF7FAD3F028020C5FF7F0100000070
:104EB000FCC6FF7F0084048010C7FF7F0100000054
:104EC0000CC7FF7FB0AD0480D8C9FF7FB0A80380B6
:104ED000FCC9FF7F44FFFF7F00CAFF7F48FFFF7FC1
:104EE0000CCAFF7F0100000010CBFF7FB0AA058035
:084EF000C8CBFF7F01000000A8
:0C4EF800E14C0008D1010008B91A0008C4
:044F0400AD010008F3
:104F08000402000000000000000000000000000093
:104F18000800000000000000000000000024F40069
:104F28000100000010000000300000200000000018
:104F38000000000078030020E0030020480400205F
:104F48000000000000000000000000000000000059
:104F58000000000000000000000000000000000049
:104F68000000000000000000000000000000000039
:104F78000000000000000000000000000000000029
:104F88000000000000000000000000000000000019
:104F98000000000000000000000000000000000009
:104FA80000000000000000000000000000000000F9
:104FB80000000000000000000000000000000000E9
:104FC80000000000000000000100000000000000D8
:104FD8000E33CDAB34126DE6ECDE05000B0000009D
:104FE80000000000000000000000000000000000B9
:104FF80000000000000000000000000000000000A9
:105008000000000000000000000000000000000098
:105018000000000000000000000000000000000088
:105028000000000000000000000000000000000078
:105038000000000000000000000000000000000068
:105048000000000000000000000000000000000058
:04505800B40400207C
:04000005080022C508
:00000001FF
